:100000000C943E000C945B000C945B000C945B0021
:100010000C945B000C945B000C945B000C945B00F4
:100020000C945B000C945B000C945B000C945B00E4
:100030000C945B000C945B000C945B000C945B00D4
:100040000C945B000C945B000C945B000C945B00C4
:100050000C945B000C945B000C945B000C945B00B4
:100060000C945B000C945B0052076E056E059F06B6
:10007000F0073B075D077306E0057D0511241FBEF1
:10008000CFEFD8E0DEBFCDBF11E0A0E0B1E0EAE6FF
:10009000F3E102C005900D92A231B107D9F721E03A
:1000A000A2E1B1E001C01D92AB39B207E1F70E94B5
:1000B000FB040C94B3090C940000FF920F931F9360
:1000C000CF93DF93082FF62E172F8BE30E949B030D
:1000D000C1EFC00F8C2F0E949B0381E00E949B0305
:1000E00085E00E949B0385E00E949B0380E00E94C4
:1000F0009B0380E00E949B030051CC2369F0CF2D2D
:10010000D12F10E00F5F1F4F0C0F1D1F89910E9410
:100110009B03C017D107D1F7DF91CF911F910F91AA
:10012000FF9008950E949B0380919A010C949B0379
:100130008F929F92BF92CF92DF92EF92FF920F9396
:100140001F93CF93DF93CDB7DEB78E01025F1F4FB2
:10015000F801E190F1908F0160E088E390E00E9467
:10016000A009E114F10409F442C034E4832E30E024
:10017000932EB12CA701B401F801808191810E94D6
:1001800096098E0C9F1CCB2CD12CF80162817381B7
:10019000F3E0CF0ED11CC601880F991F885C9F4FDA
:1001A0000E94AE096E2DC601885C9F4F0E94A00977
:1001B000B394F801E480F5800A5F1F4FE114F10465
:1001C000C9F66B2D8AE390E00E94A0096CE188E3F8
:1001D00090E00E94A009DF91CF911F910F91FF90B5
:1001E000EF90DF90CF90BF909F908F900895B12CAB
:1001F000E8CF4F925F926F927F928F929F92AF92D1
:10020000BF92CF92DF92EF92FF920F931F93CF9303
:10021000DF9388E390E00E9488098C31A9F060E0C8
:1002200088E390E0DF91CF911F910F91FF90EF90C5
:10023000DF90CF90BF90AF909F908F907F906F9006
:100240005F904F900C94A0098AE390E00E94880987
:10025000482E882321F38BE3A82E80E0B82E9EE35E
:10026000692E90E0792E512CC4E4D0E0C5010E94A3
:100270008809C82EC3010E9490094C01CC20D1F0FE
:10028000CA94D12C8FEFC81AD80ACC0EDD1E7E017D
:100290008FEFE81AF80ACE010E94880984010F5FE7
:1002A0001F4F682FC4010E94A009E7014801CE1426
:1002B000DF0469F753948FEFA81AB80A82E0680E3A
:1002C000711C4510D3CFABCF0F931F93CF93DF9308
:1002D0002091980130E02817390751F09CE690935F
:1002E000990180939A01DF91CF911F910F91089509
:1002F000C72FD62F809112010E949B0380919801F5
:10030000882381F00D2F1C2FC0E0D0E0F8018191EF
:100310008F010E949B0321968091980190E0C8175D
:10032000D907A4F380E980939901DF91CF911F91C0
:100330000F9108952F923F924F925F926F927F920A
:100340008F929F92AF92BF92CF92DF92EF92FF92E5
:100350000F931F93CF93DF9300D000D0CDB7DEB7BC
:10036000B62EA72E942E852E2DB73EB73C832B8319
:10037000EDB7FEB7E81BF90B0FB6F894FEBF0FBE42
:10038000EDBF2DB73EB72F5F3F4F79012091980108
:1003900030E0821793070CF4ADC0809112010E94E7
:1003A0009B0380919801882309F4B1C08701C12C77
:1003B000D12C0E947104F80181938F01FFEFCF1AB5
:1003C000DF0A8091980190E09C01C816D9068CF351
:1003D0009A8389831F921F928F929F92FF92EF922E
:1003E0003F932F93AF92BF92CE0101969F938F932D
:1003F0001F9282E08F930E94980088E390E00E9411
:1004000088092DB73EB7225F3F4F0FB6F8943EBF25
:100410000FBE2DBF8C3169F160E088E390E00E944F
:10042000A00980E9809399018B819C810FB6F89493
:100430009EBF0FBE8DBF8B819C810FB6F8949EBF6F
:100440000FBE8DBF0F900F900F900F90DF91CF9147
:100450001F910F91FF90EF90DF90CF90BF90AF90E2
:100460009F908F907F906F905F904F903F902F90D4
:1004700008958AE390E00E948809282E882361F27B
:100480008BE3682E80E0782E9EE3492E90E0592E73
:1004900004E410E0312CC3010E948809882EC201B7
:1004A0000E9490097C018820D9F08A94912C9FEFBA
:1004B000891A990A800E911E5801EFEFAE1ABE0AF2
:1004C000C8010E9488096701FFEFCF1ADF0A682F71
:1004D000C7010E94A009850176018A149B0461F777
:1004E00033942FEF621A720A32E0430E511C23102C
:1004F000D2CF92CF9CE69093990180939A018B8101
:100500009C810FB6F8949EBF0FBE8DBF94CF20E0A4
:1005100030E080E090E05CCFEF92FF920F931F936A
:10052000CF93DF93CDB7DEB7A0970FB6F894DEBFB9
:100530000FBECDBF7B010E948809182F80919801C2
:10054000181791F08CE68093990110939A01A09668
:100550000FB6F894DEBF0FBECDBFDF91CF911F91D4
:100560000F91FF90EF900895809112010E949B03DC
:10057000412F50E0B701CE0101960E947809809189
:100580009801882391F0CE0101967C0100E010E0F3
:10059000F70181917F010E949B030F5F1F4F8091A4
:1005A000980190E0081719079CF380E9809399015E
:1005B000CECF4F925F926F927F928F929F92AF9227
:1005C000BF92CF92DF92EF92FF920F931F93CF9340
:1005D000DF93182F092FEB010E948809482F50E064
:1005E000598348832091980130E042175307B1F0B6
:1005F0009CE69093990180939A01DF91CF911F918E
:100600000F91FF90EF90DF90CF90BF90AF909F90B1
:100610008F907F906F905F904F9008951F921F92E0
:100620000F931F931F921F921F928F93DF93CF936D
:100630001F921F921F9281E08F930E94980088E37F
:1006400090E00E9488092DB73EB7225F3F4F0FB65A
:10065000F8943EBF0FBE2DBF8C3149F060E088E3B7
:1006600090E00E94A00980E980939901C6CF8AE3B7
:1006700090E00E948809482E882381F38BE3A82EFE
:1006800080E0B82E9EE3692E90E0792EC4E4D0E09D
:10069000512CC5010E948809C82EC3010E949009EF
:1006A0004C01CC20D1F0CA94D12C3FEFC31AD30A0D
:1006B000CC0EDD1E7E018FEFE81AF80ACE010E94F3
:1006C000880984010F5F1F4F682FC4010E94A00991
:1006D000E7014801EC14FD0469F753942FEFA21AC7
:1006E000B20A32E0630E711C4510D3CFB7CFCF935F
:1006F000DF9300D0CDB7DEB78A838A81817082957F
:10070000807F898382EB90E0FC0180818E32D0F380
:1007100085E290E02981FC01208382EB90E0FC01DE
:10072000108282EB90E0FC01108200000F900F908D
:10073000DF91CF910895CF93DF9300D000D0CDB754
:10074000DEB78C838C818B8381EB90E022E0FC010F
:10075000208382EB90E028E2FC01208385E290E098
:1007600025E230E0F90120812061FC01208384E250
:1007700090E024E230E0F90120812061FC01208337
:1007800080E00E9477031A8219820DC08C810E943A
:1007900077039A818C8189278A838C8186958C83C3
:1007A00089818F5F89838981883080F38A810E9463
:1007B000770381E00E94770382EB90E0FC01808167
:1007C0008E32D0F384E290E024E230E0F90120811F
:1007D0002F7EFC01208385E290E025E230E0F901E4
:1007E00020812F7EFC01208382EB90E0FC01808140
:1007F0008D35D0F383E290E0FC018081882F90E07A
:1008000080719927892B91F483E290E0FC0180812B
:10081000882F90E080719927892BB1F382EB90E0CB
:1008200026E1FC0120838B818C8398CF81EB90E0C3
:10083000FC01108200000F900F900F900F90DF913D
:10084000CF910895CF93DF931F92CDB7DEB782EBA0
:1008500090E0FC0180818E32D0F382EB90E0FC01CD
:10086000108282EB90E0FC01108282EB90E0FC01B0
:1008700080818C30D0F383E290E0FC018081807134
:10088000898382EB90E0FC0180818731D0F383E2A1
:1008900090E0FC018081882F90E080719927982F4B
:1008A0008981890F898382EB90E0FC01808182320B
:1008B000D0F383E290E0FC018081882F90E080718A
:1008C0009927982F8981890F89838981882F90E0C2
:1008D000880F991F880F991F80780F90DF91CF9113
:1008E0000895CF93DF9300D000D0CDB7DEB781EB72
:1008F00090E022E0FC01208384E290E024E230E0FA
:10090000F90120812F7EFC01208385E290E025E221
:1009100030E0F90120812061FC0120831A8283E20A
:1009200090E0FC018081882F90E080719927892BCD
:10093000B1F783E290E0FC018081882F90E0807124
:100940009927892BB1F782EB90E0FC01108282EBB2
:1009500090E0FC0110821B82198210C00E942204C8
:100960008C838A81982F96958C81890F8A839B81AD
:100970008C8189278B8389818F5F898389818830E6
:1009800068F30E942204982F8B8189278B8382EB46
:1009900090E0FC0180818D35D0F38B818823C9F0F4
:1009A00085E290E025E230E0F90120812F7EFC0114
:1009B000208384E290E024E230E0F901208120618C
:1009C000FC01208382EB90E0FC018081823AD0F32D
:1009D00093CF82EB90E0FC0180818B38D0F381EBE8
:1009E00090E0FC0110828A810F900F900F900F9081
:1009F000DF91CF910895CF93DF93CDB7DEB7A69760
:100A00000FB6F894DEBF0FBECDBF80E880BF8FEF7A
:100A100085B984B987B91AB888B98BB980E680934B
:100A2000B60087E88093640060E071E08BE00E948C
:100A30005D00109216011092150110929A019E010C
:100A40002F5D3F4F3CA32BA31BC080911201882335
:100A500009F4F2C2813009F041C082E390E00E94C3
:100A60008809181709F41DC3FCE6F09399018093D7
:100A70009A018CE60E949B0380919A010E949B033D
:100A80000E947104809314010E94710480931201EA
:100A90000E947104809317010E94710480931301D6
:100AA0000E947104182F8093980110929A018091EE
:100AB0001401803861F0813841F28EE60E949B0378
:100AC00080919A010E949B0380919901D3CFE0917C
:100AD00012018E2F90E08A30910550F08DE60E9431
:100AE0009B0380919A010E949B0380919901C2CF40
:100AF000FC01EC5CFF4F0C9472092DB73EB73EA38E
:100B00002DA3412F50E0453051050CF0C1C289E0C2
:100B10000E949B0380919801882309F4DEC3CE01D3
:100B200001967C0100E010E00E947104F7018193BE
:100B30007F010F5F1F4F8091980190E09C01081783
:100B4000190794F39AA389A31F921F9280E090E063
:100B50009F938F9381E090E08C0F9D1F9F938F93C5
:100B60003F932F93E0E3F0E0FF93EF933CA13F939B
:100B70004BA14F931F9282E08F930E94980088E3CD
:100B800090E00E948809EDB7FEB73E960FB6F89444
:100B9000FEBF0FBEEDBF8C3109F4C1C260E088E337
:100BA00090E00E94A009F0E9F09399012DA13EA1E7
:100BB0000FB6F8943EBF0FBE2DBF809199015ACF5A
:100BC0002DB73EB73EA32DA3412F50E0493051052C
:100BD0000CF08EC288E00E949B03809198018823CC
:100BE00009F476C3CE0101967C0100E010E00E947A
:100BF0007104F70181937F010F5F1F4F809198016E
:100C000090E09C010817190794F39AA389A31F92F7
:100C10001F9288E090E09F938F9381E090E08C0F8B
:100C20009D1F9F938F933F932F93E4E3F0E0FF93F7
:100C3000EF933CA13F934BA14F931F9282E08F9380
:100C40000E94980088E390E00E948809EDB7FEB703
:100C50003E960FB6F894FEBF0FBEEDBF8C3109F083
:100C60009DCF8AE390E00E948809282E882309F40A
:100C700095CF6BE3662E60E0762E7EE3472E70E024
:100C8000572E04E410E0312CC3010E948809882EFD
:100C9000C2010E9490097C018820D9F08A94912C8D
:100CA0003FEF831A930A800E911E58014FEFA41A4A
:100CB000B40AC8010E94880967019FEFC91AD90ABE
:100CC000682FC7010E94A00985017601A814B90404
:100CD00061F73394EFEF6E1A7E0AF2E04F0E511C6B
:100CE0002310D2CF5BCF84E390E00E9488091813D1
:100CF000BBCE87E00E949B03412F50E068E070E08C
:100D0000CE0101960E94780980919801882391F084
:100D1000CE0101967C0100E010E0F70181917F0196
:100D20000E949B030F5F1F4F8091980190E008176E
:100D300019079CF320E92093990180E99BCE2DB7F8
:100D40003EB73EA32DA38DB79EB780970FB6F894FC
:100D50009EBF0FBE8DBFEDB7FEB731967F01412F0D
:100D600050E0413251050CF0CCC183E00E949B035E
:100D700080919801882309F4A6C28701C12CD12C47
:100D80000E947104F80181938F01FFEFCF1ADF0AEF
:100D90008091980190E09C01C816D9068CF39A8343
:100DA00089831F921F9280E190E09F938F93FF921F
:100DB000EF923F932F9326E330E03F932F9381E010
:100DC00090E08C0F9D1F9F938F931F9292E09F93B3
:100DD0000E94980088E390E00E948809EDB7FEB772
:100DE0003E960FB6F894FEBF0FBEEDBF8C3109F0F2
:100DF000D5CE8AE390E00E948809282E882309F442
:100E0000CDCEEBE36E2EE0E07E2EFEE34F2EF0E043
:100E10005F2E04E410E0312CC3010E948809882E63
:100E2000C2010E9490097C018820D9F08A94912CFB
:100E30003FEF831A930A800E911E58014FEFA41AB8
:100E4000B40AC8010E94880967019FEFC91AD90A2C
:100E5000682FC7010E94A00985017601A814B90472
:100E600061F73394EFEF6E1A7E0AF2E04F0E511CD9
:100E70002310D2CF93CE80E190E00E948809282FE2
:100E800030E03093370020933600412F50E0241794
:100E9000350709F486C12CE62093990180939A01C5
:100EA0008CE6E8CD143009F4AAC13CE630939901F0
:100EB00044E040939A018CE6DDCD2DB73EB73EA3CA
:100EC0002DA3412F50E0453051050CF0E1C086E0E4
:100ED0000E949B0380919801882309F4EFC1CE0101
:100EE00001967C0100E010E00E947104F7018193FB
:100EF0007F010F5F1F4F8091980190E09C010817C0
:100F0000190794F39AA389A31F921F9284E090E09B
:100F10009F938F9381E090E08C0F9D1F9F938F9301
:100F20003F932F93E2E3F0E0FF93EF933CA13F93D5
:100F30004BA14F931F9282E08F930E94980088E309
:100F400090E00E948809EDB7FEB73E960FB6F89480
:100F5000FEBF0FBEEDBF8C3109F020CE8AE390E0DA
:100F60000E948809282E882309F418CE2BE3622ECC
:100F700020E0722E3EE3432E30E0532E04E410E0D6
:100F8000312CC3010E948809882EC2010E94900959
:100F90007C018820D9F08A94912C3FEF831A930A20
:100FA000800E911E58014FEFA41AB40AC8010E9486
:100FB000880967019FEFC91AD90A682FC7010E94E3
:100FC000A00985017601A814B90461F73394EFEF05
:100FD0006E1A7E0AF2E04F0E511C2310D2CFDECDE6
:100FE00086E390E00E948809181355CF84E00E94A0
:100FF0009B03412F50E060E170E0CE0101960E941A
:10100000780980919801882391F0CE0101967C01A6
:1010100000E010E0F70181917F010E949B030F5FC8
:101020001F4F8091980190E0081719079CF330E951
:101030003093990180E91ECD80E390E00E948809F9
:10104000181329CF80E00E949B03412F50E060E0FD
:1010500070E0CE0101960E94780980919801882362
:1010600031F3CE0101967C0100E010E0F70181919F
:101070007F010E949B030F5F1F4F8091980190E0BA
:10108000081719079CF330E93093990180E9F2CCF5
:101090003CE63093990144E040939A018091990194
:1010A000E9CC81E00E949B03412F50E064E070E0B6
:1010B000CE0101960E94780980919801882309F455
:1010C00039CECE0101967C0100E010E0F70181915C
:1010D0007F010E949B030F5F1F4F8091980190E05A
:1010E000081719079CF320E92093990180E9C2CCE5
:1010F0003CE63093990188E080939A0180919901B0
:10110000B9CCFCE6F093990180E280939A010FB686
:10111000F8943EBF0FBE2DBF80919901ABCC8AE3FE
:1011200090E00E948809282E882309F437CD8BE3AC
:10113000682E80E0782E9EE3492E90E0592E04E43C
:1011400010E0312CC3010E948809882EC2010E9440
:1011500090097C018820D9F08A94912C3FEF831A62
:10116000930A800E911E58014FEFA41AB40AC801C9
:101170000E94880967019FEFC91AD90A682FC70121
:101180000E94A009850176018A149B0461F73394BB
:10119000EFEF6E1A7E0AF2E04F0E511C2310D2CFF1
:1011A000FDCC1F921F9220E130E03F932F931F92BE
:1011B0001F921F928F9386E390E09F938F931F92CD
:1011C0001F921F9281E08F930E94980088E390E025
:1011D0000E9488092DB73EB7225F3F4F0FB6F894A3
:1011E0003EBF0FBE2DBF8C3141F160E088E390E03F
:1011F0000E94A00930E93093990180E93BCC80E05E
:101200000E949B0380919801882399F0ACE0EA2E1C
:10121000A1E0FA2E00E010E0F70181917F010E9429
:101220009B030F5F1F4F8091980190E008171907EB
:101230009CF380E9809399011DCC8AE390E00E94A1
:101240008809282E882389F24BE3642E40E0742E0F
:101250005EE3452E50E0552E04E410E0312CC3012E
:101260000E948809882EC2010E9490097C01882072
:10127000D9F08A94912C4FEF841A940A800E911E13
:1012800058018FEFA81AB80AC8010E94880967019F
:101290009FEFC91AD90A682FC7010E94A0098501CA
:1012A0007601A814B90461F73394EFEF6E1A7E0A41
:1012B000F2E04F0E511C2310D2CF97CF20E030E048
:1012C00080E090E01FCE20E030E080E090E067CD4D
:1012D00020E030E080E090E098CC20E030E080E05A
:1012E00090E030CCEE0FFF1F0590F491E02D0994B3
:1012F000DC01CB01FC01F999FECF06C0F2BDE1BDD6
:10130000F89A319600B40D9241505040B8F70895C4
:10131000F999FECF92BD81BDF89A992780B50895BD
:10132000A8E1B0E042E050E00C947A09DC01CB0186
:1013300003C02D910E94A10941505040D0F708955B
:10134000262FF999FECF1FBA92BD81BD20BD0FB6E1
:10135000F894FA9AF99A0FBE019608950E94A0098E
:0A136000272F0C94A109F894FFCF89
:10136A0048656C6C6F20736361726400312E303093
:02137A00000071
:00000001FF
