:100000000C943E000C945B000C945B000C945B0021
:100010000C945B000C945B000C945B000C945B00F4
:100020000C945B000C945B000C945B000C945B00E4
:100030000C945B000C945B000C945B000C945B00D4
:100040000C945B000C945B000C945B000C945B00C4
:100050000C945B000C945B000C945B000C945B00B4
:100060000C945B000C945B00BA07CC05D60507071F
:100070005808A307C507DB064806E50511241FBE7F
:10008000CFEFD8E0DEBFCDBF11E0A0E0B1E0ECE4FF
:10009000F4E102C005900D92A831B107D9F721E033
:1000A000A8E1B1E001C01D92A13AB207E1F70E94B8
:1000B00063050C94240A0C940000FF920F931F9385
:1000C000CF93DF93082FF62E172F8BE30E940304A4
:1000D000C1EFC00F8C2F0E94030481E00E94030433
:1000E00085E00E94030485E00E94030480E00E94F2
:1000F000030480E00E9403040051CC2369F0CF2D5B
:10010000D12F10E00F5F1F4F0C0F1D1F89910E9410
:100110000304C017D107D1F7DF91CF911F910F9141
:10012000FF9008950E9403048091A0010C940304A1
:100130008F929F92BF92CF92DF92EF92FF920F9396
:100140001F93CF93DF93CDB7DEB78E01025F1F4FB2
:10015000F801E190F1908F0160E088E390E00E9467
:10016000110AE114F10409F442C034E4832E30E0B2
:10017000932EB12CA701B401F801808191810E94D6
:10018000070A8E0C9F1CCB2CD12CF8016281738145
:10019000F3E0CF0ED11CC601880F991F885C9F4FDA
:1001A0000E941F0A6E2DC601885C9F4F0E94110A93
:1001B000B394F801E480F5800A5F1F4FE114F10465
:1001C000C9F66B2D8AE390E00E94110A6CE188E386
:1001D00090E00E94110ADF91CF911F910F91FF9043
:1001E000EF90DF90CF90BF909F908F900895B12CAB
:1001F000E8CF4F925F926F927F928F929F92AF92D1
:10020000BF92CF92DF92EF92FF920F931F93CF9303
:10021000DF9388E390E00E94F9098C31A9F060E057
:1002200088E390E0DF91CF911F910F91FF90EF90C5
:10023000DF90CF90BF90AF909F908F907F906F9006
:100240005F904F900C94110A8AE390E00E94F909A4
:10025000482E882321F38BE3A82E80E0B82E9EE35E
:10026000692E90E0792E512CC4E4D0E0C5010E94A3
:10027000F909C82EC3010E94010A4C01CC20D1F01B
:10028000CA94D12C8FEFC81AD80ACC0EDD1E7E017D
:100290008FEFE81AF80ACE010E94F90984010F5F76
:1002A0001F4F682FC4010E94110AE7014801CE14B4
:1002B000DF0469F753948FEFA81AB80A82E0680E3A
:1002C000711C4510D3CFABCF0F931F93CF93DF9308
:1002D00020919E0130E02817390751F09CE6909359
:1002E0009F018093A001DF91CF911F910F910895FD
:1002F000C72FD62F809118010E94030480919E0180
:10030000882381F00D2F1C2FC0E0D0E0F8018191EF
:100310008F010E940304219680919E0190E0C817EE
:10032000D907A4F380E980939F01DF91CF911F91BA
:100330000F91089560E071E00E94E00921E0892BAF
:1003400009F020E0822F0895AF92BF92CF92DF9202
:10035000EF92FF920F931F93CF93DF93CDB7DEB74A
:10036000EDB6FEB62DB73EB7281B390B0FB6F89485
:100370003EBF0FBE2DBFEDB7FEB731966F01209186
:100380009E0130E082179307ACF49CE690939F01A6
:100390008093A0010FB6F894FEBE0FBEEDBEDF91B4
:1003A000CF911F910F91FF90EF90DF90CF90BF9072
:1003B000AF900895809118010E94030480919E01DE
:1003C000882389F08601A12CB12C0E94D904F80160
:1003D00081938F01FFEFAF1ABF0A80919E0190E0D9
:1003E000A816B90694F360E071E0C6010E94E00926
:1003F000892B21F08CE680939F01CCCF80E98093FC
:100400009F01C8CF2F923F924F925F926F927F923F
:100410008F929F92AF92BF92CF92DF92EF92FF9214
:100420000F931F93CF93DF9300D000D0CDB7DEB7EB
:10043000B62EA72E942E852E2DB73EB73C832B8348
:10044000EDB7FEB7E81BF90B0FB6F894FEBF0FBE71
:10045000EDBF2DB73EB72F5F3F4F790120919E0131
:1004600030E0821793070CF4ADC0809118010E9410
:10047000030480919E01882309F4B1C08701C12C37
:10048000D12C0E94D904F80181938F01FFEFCF1A7C
:10049000DF0A80919E0190E09C01C816D9068CF37A
:1004A0009A8389831F921F928F929F92FF92EF925D
:1004B0003F932F93AF92BF92CE0101969F938F935C
:1004C0001F9282E08F930E94980088E390E00E9440
:1004D000F9092DB73EB7225F3F4F0FB6F8943EBFE4
:1004E0000FBE2DBF8C3169F160E088E390E00E947F
:1004F000110A80E980939F018B819C810FB6F8944B
:100500009EBF0FBE8DBF8B819C810FB6F8949EBF9E
:100510000FBE8DBF0F900F900F900F90DF91CF9176
:100520001F910F91FF90EF90DF90CF90BF90AF9011
:100530009F908F907F906F905F904F903F902F9003
:1005400008958AE390E00E94F909282E882361F239
:100550008BE3682E80E0782E9EE3492E90E0592EA2
:1005600004E410E0312CC3010E94F909882EC20175
:100570000E94010A7C018820D9F08A94912C9FEF77
:10058000891A990A800E911E5801EFEFAE1ABE0A21
:10059000C8010E94F9096701FFEFCF1ADF0A682F2F
:1005A000C7010E94110A850176018A149B0461F734
:1005B00033942FEF621A720A32E0430E511C23105B
:1005C000D2CF92CF9CE690939F018093A0018B8124
:1005D0009C810FB6F8949EBF0FBE8DBF94CF20E0D4
:1005E00030E080E090E05CCFEF92FF920F931F939A
:1005F000CF93DF93CDB7DEB7A0970FB6F894DEBFE9
:100600000FBECDBF7B010E94F909182F80919E017A
:10061000181791F08CE680939F011093A001A0968B
:100620000FB6F894DEBF0FBECDBFDF91CF911F9103
:100630000F91FF90EF900895809118010E9403049C
:10064000412F50E0B701CE0101960E94E909809147
:100650009E01882391F0CE0101967C0100E010E01C
:10066000F70181917F010E9403040F5F1F4F80916A
:100670009E0190E0081719079CF380E980939F0181
:10068000CECF4F925F926F927F928F929F92AF9256
:10069000BF92CF92DF92EF92FF920F931F93CF936F
:1006A000DF93182F092FEB010E94F909482F50E022
:1006B0005983488320919E0130E042175307B1F0DF
:1006C0009CE690939F018093A001DF91CF911F91B1
:1006D0000F91FF90EF90DF90CF90BF90AF909F90E1
:1006E0008F907F906F905F904F9008951F921F9210
:1006F0000F931F931F921F921F928F93DF93CF939D
:100700001F921F921F9281E08F930E94980088E3AE
:1007100090E00E94F9092DB73EB7225F3F4F0FB618
:10072000F8943EBF0FBE2DBF8C3149F060E088E3E6
:1007300090E00E94110A80E980939F01C6CF8AE36E
:1007400090E00E94F909482E882381F38BE3A82EBC
:1007500080E0B82E9EE3692E90E0792EC4E4D0E0CC
:10076000512CC5010E94F909C82EC3010E94010A3B
:100770004C01CC20D1F0CA94D12C3FEFC31AD30A3C
:10078000CC0EDD1E7E018FEFE81AF80ACE010E9422
:10079000F90984010F5F1F4F682FC4010E94110ADD
:1007A000E7014801EC14FD0469F753942FEFA21AF6
:1007B000B20A32E0630E711C4510D3CFB7CFCF938E
:1007C000DF9300D0CDB7DEB78A838A8181708295AE
:1007D000807F898382EB90E0FC0180818E32D0F3B0
:1007E00085E290E02981FC01208382EB90E0FC010E
:1007F000108282EB90E0FC01108200000F900F90BD
:10080000DF91CF910895CF93DF9300D000D0CDB783
:10081000DEB78C838C818B8381EB90E022E0FC013E
:10082000208382EB90E028E2FC01208385E290E0C7
:1008300025E230E0F90120812061FC01208384E27F
:1008400090E024E230E0F90120812061FC01208366
:1008500080E00E94DF031A8219820DC08C810E9401
:10086000DF039A818C8189278A838C8186958C838A
:1008700089818F5F89838981883080F38A810E9492
:10088000DF0381E00E94DF0382EB90E0FC018081C6
:100890008E32D0F384E290E024E230E0F90120814E
:1008A0002F7EFC01208385E290E025E230E0F90113
:1008B00020812F7EFC01208382EB90E0FC0180816F
:1008C0008D35D0F383E290E0FC018081882F90E0A9
:1008D00080719927892B91F483E290E0FC0180815B
:1008E000882F90E080719927892BB1F382EB90E0FB
:1008F00026E1FC0120838B818C8398CF81EB90E0F3
:10090000FC01108200000F900F900F900F90DF916C
:10091000CF910895CF93DF931F92CDB7DEB782EBCF
:1009200090E0FC0180818E32D0F382EB90E0FC01FC
:10093000108282EB90E0FC01108282EB90E0FC01DF
:1009400080818C30D0F383E290E0FC018081807163
:10095000898382EB90E0FC0180818731D0F383E2D0
:1009600090E0FC018081882F90E080719927982F7A
:100970008981890F898382EB90E0FC01808182323A
:10098000D0F383E290E0FC018081882F90E08071B9
:100990009927982F8981890F89838981882F90E0F1
:1009A000880F991F880F991F80780F90DF91CF9142
:1009B0000895CF93DF9300D000D0CDB7DEB781EBA1
:1009C00090E022E0FC01208384E290E024E230E029
:1009D000F90120812F7EFC01208385E290E025E251
:1009E00030E0F90120812061FC0120831A8283E23A
:1009F00090E0FC018081882F90E080719927892BFD
:100A0000B1F783E290E0FC018081882F90E0807153
:100A10009927892BB1F782EB90E0FC01108282EBE1
:100A200090E0FC0110821B82198210C00E948A048F
:100A30008C838A81982F96958C81890F8A839B81DC
:100A40008C8189278B8389818F5F89838981883015
:100A500068F30E948A04982F8B8189278B8382EB0D
:100A600090E0FC0180818D35D0F38B818823C9F023
:100A700085E290E025E230E0F90120812F7EFC0143
:100A8000208384E290E024E230E0F90120812061BB
:100A9000FC01208382EB90E0FC018081823AD0F35C
:100AA00093CF82EB90E0FC0180818B38D0F381EB17
:100AB00090E0FC0110828A810F900F900F900F90B0
:100AC000DF91CF910895CF93DF93CDB7DEB7A6978F
:100AD0000FB6F894DEBF0FBECDBF80E880BF8FEFAA
:100AE00085B984B987B91AB888B98BB980E680937B
:100AF000B60087E88093640066E071E08BE00E94B6
:100B00005D0010921C0110921B011092A0019E0129
:100B10002F5D3F4F3CA32BA31BC08091180188235E
:100B200009F4F2C2813009F041C082E390E00E94F2
:100B3000F909181709F41DC3FCE6F0939F0180938F
:100B4000A0018CE60E9403048091A0010E9403048E
:100B50000E94D90480931A010E94D904809318013D
:100B60000E94D90480931D010E94D9048093190129
:100B70000E94D904182F80939E011092A0018091A9
:100B80001A01803861F0813841F28EE60E94030438
:100B90008091A0010E94030480919F01D3CFE09136
:100BA00018018E2F90E08A30910550F08DE60E945A
:100BB00003048091A0010E94030480919F01C2CF91
:100BC000FC01EC5CFF4F0C94DA092DB73EB73EA355
:100BD0002DA3412F50E0453051050CF0C1C289E0F2
:100BE0000E94030480919E01882309F4DEC3CE0194
:100BF00001967C0100E010E00E94D904F701819386
:100C00007F010F5F1F4F80919E0190E09C010817AC
:100C1000190794F39AA389A31F921F9280E090E092
:100C20009F938F9381E090E08C0F9D1F9F938F93F4
:100C30003F932F93E0E3F0E0FF93EF933CA13F93CA
:100C40004BA14F931F9282E08F930E94980088E3FC
:100C500090E00E94F909EDB7FEB73E960FB6F89402
:100C6000FEBF0FBEEDBF8C3109F4C1C260E088E366
:100C700090E00E94110AF0E9F0939F012DA13EA19E
:100C80000FB6F8943EBF0FBE2DBF80919F015ACF83
:100C90002DB73EB73EA32DA3412F50E0493051055B
:100CA0000CF08EC288E00E94030480919E0188238C
:100CB00009F476C3CE0101967C0100E010E00E94A9
:100CC000D904F70181937F010F5F1F4F80919E012F
:100CD00090E09C010817190794F39AA389A31F9227
:100CE0001F9288E090E09F938F9381E090E08C0FBB
:100CF0009D1F9F938F933F932F93E4E3F0E0FF9327
:100D0000EF933CA13F934BA14F931F9282E08F93AF
:100D10000E94980088E390E00E94F909EDB7FEB7C1
:100D20003E960FB6F894FEBF0FBEEDBF8C3109F0B2
:100D30009DCF8AE390E00E94F909282E882309F4C8
:100D400095CF6BE3662E60E0762E7EE3472E70E053
:100D5000572E04E410E0312CC3010E94F909882EBB
:100D6000C2010E94010A7C018820D9F08A94912C4A
:100D70003FEF831A930A800E911E58014FEFA41A79
:100D8000B40AC8010E94F90967019FEFC91AD90A7C
:100D9000682FC7010E94110A85017601A814B904C1
:100DA00061F73394EFEF6E1A7E0AF2E04F0E511C9A
:100DB0002310D2CF5BCF84E390E00E94F90918138F
:100DC000BBCE87E00E940304412F50E068E070E052
:100DD000CE0101960E94E90980919E01882391F03D
:100DE000CE0101967C0100E010E0F70181917F01C6
:100DF0000E9403040F5F1F4F80919E0190E008172F
:100E000019079CF320E920939F0180E99BCE2DB721
:100E10003EB73EA32DA38DB79EB780970FB6F8942B
:100E20009EBF0FBE8DBFEDB7FEB731967F01412F3C
:100E300050E0413251050CF0CCC183E00E94030424
:100E400080919E01882309F4A6C28701C12CD12C70
:100E50000E94D904F80181938F01FFEFCF1ADF0AB6
:100E600080919E0190E09C01C816D9068CF39A836C
:100E700089831F921F9280E190E09F938F93FF924E
:100E8000EF923F932F9326E330E03F932F9381E03F
:100E900090E08C0F9D1F9F938F931F9292E09F93E2
:100EA0000E94980088E390E00E94F909EDB7FEB730
:100EB0003E960FB6F894FEBF0FBEEDBF8C3109F021
:100EC000D5CE8AE390E00E94F909282E882309F400
:100ED000CDCEEBE36E2EE0E07E2EFEE34F2EF0E073
:100EE0005F2E04E410E0312CC3010E94F909882E22
:100EF000C2010E94010A7C018820D9F08A94912CB9
:100F00003FEF831A930A800E911E58014FEFA41AE7
:100F1000B40AC8010E94F90967019FEFC91AD90AEA
:100F2000682FC7010E94110A85017601A814B9042F
:100F300061F73394EFEF6E1A7E0AF2E04F0E511C08
:100F40002310D2CF93CE80E190E00E94F909282FA0
:100F500030E03093370020933600412F50E02417C3
:100F6000350709F486C12CE620939F018093A001E8
:100F70008CE6E8CD143009F4AAC13CE630939F0119
:100F800044E04093A0018CE6DDCD2DB73EB73EA3F3
:100F90002DA3412F50E0453051050CF0E1C086E013
:100FA0000E94030480919E01882309F4EFC1CE01C1
:100FB00001967C0100E010E00E94D904F7018193C2
:100FC0007F010F5F1F4F80919E0190E09C010817E9
:100FD000190794F39AA389A31F921F9284E090E0CB
:100FE0009F938F9381E090E08C0F9D1F9F938F9331
:100FF0003F932F93E2E3F0E0FF93EF933CA13F9305
:101000004BA14F931F9282E08F930E94980088E338
:1010100090E00E94F909EDB7FEB73E960FB6F8943E
:10102000FEBF0FBEEDBF8C3109F020CE8AE390E009
:101030000E94F909282E882309F418CE2BE3622E8A
:1010400020E0722E3EE3432E30E0532E04E410E005
:10105000312CC3010E94F909882EC2010E94010AA5
:101060007C018820D9F08A94912C3FEF831A930A4F
:10107000800E911E58014FEFA41AB40AC8010E94B5
:10108000F90967019FEFC91AD90A682FC7010E94A1
:10109000110A85017601A814B90461F73394EFEFC2
:1010A0006E1A7E0AF2E04F0E511C2310D2CFDECD15
:1010B00086E390E00E94F909181355CF84E00E945E
:1010C0000304412F50E060E170E0CE0101960E94E0
:1010D000E90980919E01882391F0CE0101967C015F
:1010E00000E010E0F70181917F010E9403040F5F8F
:1010F0001F4F80919E0190E0081719079CF330E97B
:1011000030939F0180E91ECD80E390E00E94F909B1
:10111000181329CF80E00E940304412F50E060E0C3
:1011200070E0CE0101960E94E90980919E0188231A
:1011300031F3CE0101967C0100E010E0F7018191CE
:101140007F010E9403040F5F1F4F80919E0190E07A
:10115000081719079CF330E930939F0180E9F2CC1E
:101160003CE630939F0144E04093A00180919F01B1
:10117000E9CC81E00E940304412F50E064E070E07C
:10118000CE0101960E94E90980919E01882309F40D
:1011900039CECE0101967C0100E010E0F70181918B
:1011A0007F010E9403040F5F1F4F80919E0190E01A
:1011B000081719079CF320E920939F0180E9C2CC0E
:1011C0003CE630939F0188E08093A00180919F01CD
:1011D000B9CCFCE6F0939F0180E28093A0010FB6AA
:1011E000F8943EBF0FBE2DBF80919F01ABCC8AE328
:1011F00090E00E94F909282E882309F437CD8BE36B
:10120000682E80E0782E9EE3492E90E0592E04E46B
:1012100010E0312CC3010E94F909882EC2010E94FE
:10122000010A7C018820D9F08A94912C3FEF831A1F
:10123000930A800E911E58014FEFA41AB40AC801F8
:101240000E94F90967019FEFC91AD90A682FC701DF
:101250000E94110A850176018A149B0461F7339478
:10126000EFEF6E1A7E0AF2E04F0E511C2310D2CF20
:10127000FDCC1F921F9220E130E03F932F931F92ED
:101280001F921F928F9386E390E09F938F931F92FC
:101290001F921F9281E08F930E94980088E390E054
:1012A0000E94F9092DB73EB7225F3F4F0FB6F89461
:1012B0003EBF0FBE2DBF8C3141F160E088E390E06E
:1012C0000E94110A30E930939F0180E93BCC80E015
:1012D0000E94030480919E01882399F0A2E1EA2EE6
:1012E000A1E0FA2E00E010E0F70181917F010E9459
:1012F00003040F5F1F4F80919E0190E008171907AC
:101300009CF380E980939F011DCC8AE390E00E94CA
:10131000F909282E882389F24BE3642E40E0742ECD
:101320005EE3452E50E0552E04E410E0312CC3015D
:101330000E94F909882EC2010E94010A7C018820BE
:10134000D9F08A94912C4FEF841A940A800E911E42
:1013500058018FEFA81AB80AC8010E94F90967015D
:101360009FEFC91AD90A682FC7010E94110A850187
:101370007601A814B90461F73394EFEF6E1A7E0A70
:10138000F2E04F0E511C2310D2CF97CF20E030E077
:1013900080E090E01FCE20E030E080E090E067CD7C
:1013A00020E030E080E090E098CC20E030E080E089
:1013B00090E030CCEE0FFF1F0590F491E02D0994E2
:1013C000FB01DC018D91019080190110D9F3990B7B
:1013D0000895DC01CB01FC01F999FECF06C0F2BDF6
:1013E000E1BDF89A319600B40D9241505040B8F7E3
:1013F0000895F999FECF92BD81BDF89A992780B5DD
:101400000895A8E1B0E042E050E00C94EB09DC0163
:10141000CB0103C02D910E94120A41505040D0F7D9
:101420000895262FF999FECF1FBA92BD81BD20BD28
:101430000FB6F894FA9AF99A0FBE019608950E9491
:0C144000110A272F0C94120AF894FFCF19
:10144C0061646D696E0048656C6C6F2073636172CA
:08145C006400312E3030000065
:00000001FF
