:100000000C943E000C945B000C945B000C945B0021
:100010000C945B000C945B000C945B000C945B00F4
:100020000C945B000C945B000C945B000C945B00E4
:100030000C945B000C945B000C945B000C945B00D4
:100040000C945B000C945B000C945B000C945B00C4
:100050000C945B000C945B000C945B000C945B00B4
:100060000C945B000C945B009F06F304F3042106E0
:100070003B078806AA06F5056405020511241FBE84
:10008000CFEFD8E0DEBFCDBF11E0A0E0B1E0EEEDF4
:10009000F1E102C005900D92A231B107D9F721E03C
:1000A000A2E1B1E001C01D92AB39B207E1F70E94B5
:1000B00085040C94ED080C940000FF920F931F939D
:1000C000CF93DF93082FF62E172F8BE30E94250383
:1000D000C1EFC00F8C2F0E94250381E00E942503F1
:1000E00085E00E94250385E00E94250380E00E94B0
:1000F000250380E00E9425030051CC2369F0CF2D19
:10010000D12F10E00F5F1F4F0C0F1D1F89910E9410
:100110002503C017D107D1F7DF91CF911F910F9120
:10012000FF9008950E94250380919A010C94250365
:100130008F929F92BF92CF92DF92EF92FF920F9396
:100140001F93CF93DF93CDB7DEB78E01025F1F4FB2
:10015000F801E190F1908F0160E088E390E00E9467
:10016000DA08E114F10409F442C034E4832E30E0EB
:10017000932EB12CA701B401F801808191810E94D6
:10018000D0088E0C9F1CCB2CD12CF801628173817E
:10019000F3E0CF0ED11CC601880F991F885C9F4FDA
:1001A0000E94E8086E2DC601885C9F4F0E94DA0805
:1001B000B394F801E480F5800A5F1F4FE114F10465
:1001C000C9F66B2D8AE390E00E94DA086CE188E3BF
:1001D00090E00E94DA08DF91CF911F910F91FF907C
:1001E000EF90DF90CF90BF909F908F900895B12CAB
:1001F000E8CF4F925F926F927F928F929F92AF92D1
:10020000BF92CF92DF92EF92FF920F931F93CF9303
:10021000DF9388E390E00E94C2088C31A9F060E08F
:1002200088E390E0DF91CF911F910F91FF90EF90C5
:10023000DF90CF90BF90AF909F908F907F906F9006
:100240005F904F900C94DA088AE390E00E94C20815
:10025000482E882321F38BE3A82E80E0B82E9EE35E
:10026000692E90E0792E512CC4E4D0E0C5010E94A3
:10027000C208C82EC3010E94CA084C01CC20D1F08C
:10028000CA94D12C8FEFC81AD80ACC0EDD1E7E017D
:100290008FEFE81AF80ACE010E94C20884010F5FAE
:1002A0001F4F682FC4010E94DA08E7014801CE14ED
:1002B000DF0469F753948FEFA81AB80A82E0680E3A
:1002C000711C4510D3CFABCF0F931F93CF93DF9308
:1002D0002091980130E02817390751F09CE690935F
:1002E000990180939A01DF91CF911F910F91089509
:1002F000C72FD62F809112010E942503809198016B
:10030000882381F00D2F1C2FC0E0D0E0F8018191EF
:100310008F010E94250321968091980190E0C817D3
:10032000D907A4F380E980939901DF91CF911F91C0
:100330000F9108952F923F924F925F926F927F920A
:100340008F929F92AF92BF92CF92DF92EF92FF92E5
:100350000F931F93CF93DF9300D0CDB7DEB7B62EA8
:10036000A72E942E852E2DB73EB73A832983EDB75D
:10037000FEB7E81BF90B0FB6F894FEBF0FBEEDBF3A
:100380002DB73EB72F5F3F4F79012091980130E0A4
:10039000821793070CF4A8C0809112010E942503D4
:1003A00080919801882309F4ACC08701C12CD12C1D
:1003B0000E94FB03F80181938F01FFEFCF1ADF0A40
:1003C0008091980190E0C816D90694F31F921F926D
:1003D0008F929F92FF92EF929F938F93AF92BF92D3
:1003E00088E991E09F938F931F9281E08F930E9401
:1003F000980088E390E00E94C2082DB73EB7225FC4
:100400003F4F0FB6F8943EBF0FBE2DBF8C3159F150
:1004100060E088E390E00E94DA0880E98093990127
:1004200089819A810FB6F8949EBF0FBE8DBF8981D6
:100430009A810FB6F8949EBF0FBE8DBF0F900F909C
:10044000DF91CF911F910F91FF90EF90DF90CF90B0
:10045000BF90AF909F908F907F906F905F904F90E4
:100460003F902F9008958AE390E00E94C208282EC2
:10047000882371F28BE3682E80E0782E9EE3492E6C
:1004800090E0592E04E410E0312CC3010E94C20810
:10049000882EC2010E94CA087C018820D9F08A9463
:1004A000912C9FEF891A990A800E911E5801EFEF47
:1004B000AE1ABE0AC8010E94C2086701FFEFCF1A38
:1004C000DF0A682FC7010E94DA08850176018A14C5
:1004D0009B0461F733942FEF621A720A32E0430EE5
:1004E000511C2310D2CF94CF9CE690939901809316
:1004F0009A0189819A810FB6F8949EBF0FBE8DBF75
:1005000096CF80E090E062CFEF92FF920F931F931F
:10051000CF93DF93CDB7DEB7A0970FB6F894DEBFC9
:100520000FBECDBF7B010E94C208182F8091980199
:10053000181791F08CE68093990110939A01A09678
:100540000FB6F894DEBF0FBECDBFDF91CF911F91E4
:100550000F91FF90EF900895809112010E94250362
:10056000412F50E0B701CE0101960E94B208809160
:100570009801882391F0CE0101967C0100E010E003
:10058000F70181917F010E9425030F5F1F4F80912A
:10059000980190E0081719079CF380E9809399016E
:1005A000CECF0F931F93CF93DF938C01EB010E946B
:1005B000C208482F50E0598348832091980130E0C9
:1005C0004217530751F09CE69093990180939A014A
:1005D000DF91CF911F910F91089560E070E0CE01FF
:1005E0000E94E8084091980150E0B801CE010E94B5
:1005F000D00880E980939901DF91CF911F910F91ED
:100600000895CF93DF9300D0CDB7DEB78A838A8178
:1006100081708295807F898382EB90E0FC018081EC
:100620008E32D0F385E290E02981FC01208382EBB9
:1006300090E0FC01108282EB90E0FC01108200004F
:100640000F900F90DF91CF910895CF93DF9300D05B
:1006500000D0CDB7DEB78C838C818B8381EB90E0AB
:1006600022E0FC01208382EB90E028E2FC01208361
:1006700085E290E025E230E0F90120812061FC0173
:10068000208384E290E024E230E0F90120812061BF
:10069000FC01208380E00E9401031A8219820DC0B0
:1006A0008C810E9401039A818C8189278A838C81A5
:1006B00086958C8389818F5F89838981883080F3D7
:1006C0008A810E94010381E00E94010382EB90E095
:1006D000FC0180818E32D0F384E290E024E230E0AD
:1006E000F90120812F7EFC01208385E290E025E244
:1006F00030E0F90120812F7EFC01208382EB90E025
:10070000FC0180818D35D0F383E290E0FC01808193
:10071000882F90E080719927892B91F483E290E0F3
:10072000FC018081882F90E080719927892BB1F39B
:1007300082EB90E026E1FC0120838B818C8398CFB3
:1007400081EB90E0FC01108200000F900F900F9061
:100750000F90DF91CF910895CF93DF931F92CDB784
:10076000DEB782EB90E0FC0180818E32D0F382EB29
:1007700090E0FC01108282EB90E0FC01108282EBA1
:1007800090E0FC0180818C30D0F383E290E0FC01AA
:1007900080818071898382EB90E0FC0180818731C8
:1007A000D0F383E290E0FC018081882F90E080719B
:1007B0009927982F8981890F898382EB90E0FC012A
:1007C00080818232D0F383E290E0FC018081882F27
:1007D00090E080719927982F8981890F8983898179
:1007E000882F90E0880F991F880F991F80780F90AD
:1007F000DF91CF910895CF93DF9300D000D0CDB794
:10080000DEB781EB90E022E0FC01208384E290E0FF
:1008100024E230E0F90120812F7EFC01208385E273
:1008200090E025E230E0F90120812061FC01208385
:100830001A8283E290E0FC018081882F90E0807131
:100840009927892BB1F783E290E0FC018081882F02
:1008500090E080719927892BB1F782EB90E0FC0141
:10086000108282EB90E0FC0110821B82198210C082
:100870000E94AC038C838A81982F96958C81890F76
:100880008A839B818C8189278B8389818F5F898370
:100890008981883068F30E94AC03982F8B81892767
:1008A0008B8382EB90E0FC0180818D35D0F38B81CE
:1008B0008823C9F085E290E025E230E0F90120814B
:1008C0002F7EFC01208384E290E024E230E0F901F5
:1008D00020812061FC01208382EB90E0FC0180817B
:1008E000823AD0F393CF82EB90E0FC0180818B3889
:1008F000D0F381EB90E0FC0110828A810F900F9081
:100900000F900F90DF91CF910895CF93DF93CDB7E4
:10091000DEB7A2970FB6F894DEBF0FBECDBF80E85A
:1009200080BF8FEF85B984B987B91AB888B98BB9F8
:1009300080E68093B60087E88093640060E071E011
:100940008BE00E945D00109216011092150110922A
:100950009A011BC080911201882309F49AC2813048
:1009600009F041C082E390E00E94C208181709F420
:10097000BBC2FCE6F093990180939A018CE60E9439
:10098000250380919A010E9425030E94FB03809316
:1009900014010E94FB03809312010E94FB038093C9
:1009A00017010E94FB03809313010E94FB03182F81
:1009B0008093980110929A0180911401803861F01F
:1009C000813841F28EE60E94250380919A010E94AF
:1009D000250380919901D3CFE09112018E2F90E0F1
:1009E0008A30910550F08DE60E94250380919A018E
:1009F0000E94250380919901C2CFFC01EC5CFF4F5E
:100A00000C94AC088DB79EB79AA389A3412F50E0F0
:100A1000453051050CF0AFC289E00E94250380915A
:100A20009801882309F495C39E012F5F3F4F7901F8
:100A300000E010E00E94FB03F70181937F010F5F4C
:100A40001F4F8091980190E0081719079CF31F929F
:100A50001F9220E030E03F932F93E1E0F0E0EC0FB5
:100A6000FD1FFF93EF939F938F9320E330E03F931D
:100A70002F9388E991E09F938F931F92F1E0FF936A
:100A80000E94980088E390E00E94C2082DB73EB70C
:100A9000225F3F4F0FB6F8943EBF0FBE2DBF8C3183
:100AA00009F472C260E088E390E00E94DA0830E95D
:100AB0003093990189A19AA10FB6F8949EBF0FBEF9
:100AC0008DBF809199015BCF2DB73EB73AA329A383
:100AD000412F50E0493051050CF044C288E00E949B
:100AE000250380919801882309F430C3CE01019633
:100AF0007C0100E010E00E94FB03F70181937F017D
:100B00000F5F1F4F8091980190E0081719079CF321
:100B10001F921F9228E030E03F932F93E1E0F0E036
:100B2000EC0FFD1FFF93EF939F938F9324E330E02F
:100B30003F932F9388E991E09F938F931F92F1E069
:100B4000FF930E94980088E390E00E94C2082DB7AE
:100B50003EB7225F3F4F0FB6F8943EBF0FBE2DBF8A
:100B60008C3109F09FCF8AE390E00E94C208282EC2
:100B7000882309F497CF4BE3642E40E0742E5EE3A4
:100B8000452E50E0552E04E410E0312CC3010E94A4
:100B9000C208882EC2010E94CA087C018820D9F0B0
:100BA0008A94912C9FEF891A990A800E911E580100
:100BB000EFEFAE1ABE0AC8010E94C2086701FFEF3C
:100BC000CF1ADF0A682FC7010E94DA088501760173
:100BD000A814B90461F733942FEF621A720A32E055
:100BE000430E511C2310D2CF5DCF84E390E00E94CE
:100BF000C2081813BECE87E00E942503412F50E0A3
:100C000068E070E0CE0101960E94B20880919801E0
:100C1000882391F0CE0101967C0100E010E0F701FD
:100C200081917F010E9425030F5F1F4F80919801E2
:100C300090E0081719079CF320E92093990180E9B7
:100C40009ECE2DB73EB73AA329A38DB79EB7809706
:100C50000FB6F8949EBF0FBE8DBFEDB7FEB73196AD
:100C60007F01412F50E0413251050CF06DC183E00E
:100C70000E94250380919801882309F461C28701AD
:100C8000C12CD12C0E94FB03F80181938F01FFEF4F
:100C9000CF1ADF0A8091980190E0C816D90694F324
:100CA0001F921F9220E130E03F932F93FF92EF922B
:100CB0009F938F9386E390E09F938F9328E931E091
:100CC0003F932F931F9281E08F930E94980088E3B7
:100CD00090E00E94C208EDB7FEB73E960FB6F894BA
:100CE000FEBF0FBEEDBF8C3109F490C160E088E318
:100CF00090E00E94DA08F0E9F093990129A13AA165
:100D00000FB6F8943EBF0FBE2DBF8091990137CE2C
:100D100080E190E00E94C208282F30E03093370035
:100D200020933600412F50E02417350709F4D6C12F
:100D30004CE64093990180939A018CE620CE1430C2
:100D400009F4DFC12CE62093990134E030939A0135
:100D50008CE615CEEDB7FEB7FAA3E9A3412F50E01C
:100D6000453051050CF0E7C086E00E9425038091D4
:100D70009801882309F4E7C1CE0101967C0100E0C7
:100D800010E00E94FB03F70181937F010F5F1F4F6B
:100D90008091980190E0081719079CF31F921F9209
:100DA00024E030E03F932F93E1E0F0E0EC0FFD1FF3
:100DB000FF93EF939F938F9322E330E03F932F9322
:100DC00088E991E09F938F931F92F1E0FF930E9437
:100DD000980088E390E00E94C2082DB73EB7225FDA
:100DE0003F4F0FB6F8943EBF0FBE2DBF8C3109F0B8
:100DF00059CE8AE390E00E94C208282E882309F485
:100E000051CE2BE3622E20E0722E3EE3432E30E0E3
:100E1000532E04E410E0312CC3010E94C208882E36
:100E2000C2010E94CA087C018820D9F08A94912CC2
:100E30009FEF891A990A800E911E5801EFEFAE1AA2
:100E4000BE0AC8010E94C2086701FFEFCF1ADF0A7D
:100E5000682FC7010E94DA0885017601A814B90439
:100E600061F733942FEF621A720A32E0430E511C7D
:100E70002310D2CF17CE86E390E00E94C208181745
:100E800009F406C12CE62093990180939A018CE61F
:100E900076CD80E390E00E94C208181349CF80E02D
:100EA0000E942503412F50E060E070E0CE010196E2
:100EB0000E94B20880919801882391F0FE0131963A
:100EC0007F0100E010E0F70181917F010E9425037E
:100ED0000F5F1F4F8091980190E0081719079CF34E
:100EE00080E9809399014BCD81E00E942503412F39
:100EF00050E064E070E0CE0101960E94B20880915B
:100F00009801882309F498CECE0101967C0100E077
:100F100010E0F70181917F010E9425030F5F1F4FB1
:100F20008091980190E0081719079CF320E920931D
:100F3000990180E924CDFCE6F093990124E0209307
:100F40009A01809199011BCDFCE6F093990180E212
:100F500080939A010FB6F8943EBF0FBE2DBF8091CB
:100F600099010DCD3CE63093990188E080939A0178
:100F70008091990104CD9CE690939901E4E0E0937F
:100F80009A0180919901FBCC8AE390E00E94C2080B
:100F9000282E882309F486CD8BE3682E80E0782EF6
:100FA0009EE3492E90E0592E04E410E0312CC30159
:100FB0000E94C208882EC2010E94CA087C018820B3
:100FC000D9F08A94912C9FEF891A990A800E911E6C
:100FD0005801EFEFAE1ABE0AC8010E94C2086701AD
:100FE000FFEFCF1ADF0A682FC7010E94DA088501D8
:100FF00076018A149B0461F733942FEF621A720A08
:1010000032E0430E511C2310D2CF4CCD8AE390E046
:101010000E94C208282E882309F468CE6BE3662E4E
:1010200060E0762E7EE3472E70E0572E04E410E059
:10103000312CC3010E94C208882EC2010E94CA0836
:101040007C018820D9F08A94912C3FEF831A930A6F
:10105000800E911E58014FEFA41AB40AC8010E94D5
:10106000C20867019FEFC91AD90A682FC7010E94F9
:10107000DA0885017601A814B90461F73394EFEF1B
:101080006E1A7E0AF2E04F0E511C2310D2CF2ECEE4
:1010900084E00E942503412F50E060E170E0CE0122
:1010A00001960E94B20880919801882391F0CE01A8
:1010B00001967C0100E010E0F70181917F010E9420
:1010C00025030F5F1F4F8091980190E008171907C3
:1010D0009CF330E93093990180E951CC60E070E0F5
:1010E00086E390E00E94E8084091980150E060E1BA
:1010F00070E086E390E00E94D00880E98093990137
:101100003ECC80E00E94250380919801882399F0CD
:10111000ECE0EE2EE1E0FE2E00E010E0F701819120
:101120007F010E9425030F5F1F4F8091980190E07F
:10113000081719079CF340E94093990180E91FCCF7
:1011400080E090E0ADCD80E090E028CE80E090E0BF
:10115000DFCC80E090E07BCCEE0FFF1F0590F49198
:10116000E02D0994DC01CB01FC01F999FECF06C00A
:10117000F2BDE1BDF89A319600B40D924150504055
:10118000B8F70895F999FECF92BD81BDF89A9927D5
:1011900080B50895A8E1B0E042E050E00C94B408B6
:1011A000DC01CB0103C02D910E94DB08415050406F
:1011B000D0F70895262FF999FECF1FBA92BD81BDB1
:1011C00020BD0FB6F894FA9AF99A0FBE01960895C9
:0E11D0000E94DA08272F0C94DB08F894FFCF5A
:1011DE0048656C6C6F20736361726400312E303021
:0211EE000000FF
:00000001FF
