:100000000C943E000C945B000C945B000C945B0021
:100010000C945B000C945B000C945B000C945B00F4
:100020000C945B000C945B000C945B000C945B00E4
:100030000C945B000C945B000C945B000C945B00D4
:100040000C945B000C945B000C945B000C945B00C4
:100050000C945B000C945B000C945B000C945B00B4
:100060000C945B000C945B001908D80719076C0806
:10007000ED072308C00793073007280711241FBE88
:10008000CFEFD8E0DEBFCDBF11E0A0E0B1E0E2E00D
:10009000F8E102C005900D92A831B107D9F721E02F
:1000A000A8E1B1E001C01D92A33AB207E1F70E94B6
:1000B000A5060C94FF0B0C940000FF920F931F9366
:1000C000CF93DF93082FF62E172F8BE30E94450561
:1000D000C1EFC00F8C2F0E94450581E00E944505AD
:1000E00085E00E94450585E00E94450580E00E946C
:1000F000450580E00E9445050051CC2369F0CF2DD5
:10010000D12F10E00F5F1F4F0C0F1D1F89910E9410
:100110004505C017D107D1F7DF91CF911F910F91FE
:10012000FF9008950E9445058091A2010C94450519
:100130008F929F92BF92CF92DF92EF92FF920F9396
:100140001F93CF93DF93CDB7DEB78E01025F1F4FB2
:10015000F801E190F1908F0160E088E390E00E9467
:10016000EC0BE114F10409F442C034E4832E30E0D6
:10017000932EB12CA701B401F801808191810E94D6
:10018000E20B8E0C9F1CCB2CD12CF8016281738169
:10019000F3E0CF0ED11CC601880F991F885C9F4FDA
:1001A0000E94FA0B6E2DC601885C9F4F0E94EC0BDB
:1001B000B394F801E480F5800A5F1F4FE114F10465
:1001C000C9F66B2D8AE390E00E94EC0B6CE188E3AA
:1001D00090E00E94EC0BDF91CF911F910F91FF9067
:1001E000EF90DF90CF90BF909F908F900895B12CAB
:1001F000E8CF4F925F926F927F928F929F92AF92D1
:10020000BF92CF92DF92EF92FF920F931F93CF9303
:10021000DF9388E390E00E94D40B8C31A9F060E07A
:1002200088E390E0DF91CF911F910F91FF90EF90C5
:10023000DF90CF90BF90AF909F908F907F906F9006
:100240005F904F900C94EC0B8AE390E00E94D40BEB
:10025000482E882321F38BE3A82E80E0B82E9EE35E
:10026000692E90E0792E512CC4E4D0E0C5010E94A3
:10027000D40BC82EC3010E94DC0B4C01CC20D1F062
:10028000CA94D12C8FEFC81AD80ACC0EDD1E7E017D
:100290008FEFE81AF80ACE010E94D40B84010F5F99
:1002A0001F4F682FC4010E94EC0BE7014801CE14D8
:1002B000DF0469F753948FEFA81AB80A82E0680E3A
:1002C000711C4510D3CFABCF0F931F93CF93DF9308
:1002D0002091A00130E02817390751F09CE6909357
:1002E000A1018093A201DF91CF911F910F910895F9
:1002F000C72FD62F80911A010E9445058091A00139
:10030000882381F00D2F1C2FC0E0D0E0F8018191EF
:100310008F010E94450521968091A00190E0C817A9
:10032000D907A4F380E98093A101DF91CF911F91B8
:100330000F910895CF93DF93EC014115510599F08A
:100340009881FB012081291313C0FE013196DB0146
:1003500011964C0F5D1F04C091912D91921308C00E
:10036000E417F507C9F780E090E0DF91CF91089599
:10037000892F90E0821B9109DF91CF9108958F9290
:100380009F92AF92BF92CF92DF92EF92FF920F9324
:100390001F93CF93DF93CDB7DEB76C018DB69EB6BA
:1003A0008DB79EB78C199D090FB6F8949EBF0FBEEE
:1003B0008DBFEDB7FEB731967F018091A00190E02F
:1003C000C816D906E4F48CE68093A101C092A2017C
:1003D0000FB6F8949EBE0FBE8DBE0FB6F8949EBEAB
:1003E0000FBE8DBEDF91CF911F910F91FF90EF90C7
:1003F000DF90CF90BF90AF909F908F9008958091A5
:100400001A010E9445058091A001882381F05701BF
:1004100000E010E00E941B06F50181935F010F5F71
:100420001F4F8091A00190E0081719079CF3C11499
:10043000D10499F0F70180818136E9F4D701119652
:10044000E1E0F1E0C60180509F4F04C03D91219151
:10045000321311C0E817F907C9F781E08093190139
:100460008093180180E98093A1010FB6F8949EBE95
:100470000FBE8DBEB2CF8AE68093A1011092190102
:1004800081E080931801A4CF2F923F924F925F9208
:100490006F927F928F929F92AF92BF92CF92DF9294
:1004A000EF92FF920F931F93CF93DF9300D000D072
:1004B000CDB7DEB79C01B62EA72E942E852E6DB635
:1004C0007EB690911801911126C08AE68093A10111
:1004D0001092A2010FB6F8947EBE0FBE6DBE0FB68D
:1004E000F8947EBE0FBE6DBE0F900F900F900F90D0
:1004F000DF91CF911F910F91FF90EF90DF90CF9000
:10050000BF90AF909F908F907F906F905F904F9033
:100510003F902F9008958DB79EB7821B930B0FB617
:10052000F8949EBF0FBE8DBFEDB7FEB731967F0129
:100530008091A00190E02817390734F48CE680936D
:10054000A1012093A201C6CF80911A010E94450506
:100550008091A001882309F488C08701C12CD12C87
:100560000E941B06F80181938F01FFEFCF1ADF0A6B
:100570008091A00190E09C01C816D9068CF39A8363
:1005800089831F921F928F929F92FF92EF923F93C7
:100590002F93AF92BF92CE0101969F938F931F929C
:1005A00082E08F930E94980088E390E00E94D40B31
:1005B0002DB73EB7225F3F4F0FB6F8943EBF0FBE38
:1005C0002DBF8C3171F060E088E390E00E94EC0B6D
:1005D00080E98093A1010FB6F8947EBE0FBE6DBE78
:1005E0007ECF8AE390E00E94D40B8C83882359F35A
:1005F0008BE3482E80E0582E9EE3292E90E0392E82
:1006000004E410E01B82C2010E94D40B882EC101B9
:100610000E94DC0B7C018820D9F08A94912C3FEF5A
:10062000831A930A800E911E58018FEFA81AB80AF8
:10063000C8010E94D40B67019FEFC91AD90A682F1D
:10064000C7010E94EC0B850176018A149B0461F7B7
:10065000EB81EF5FEB83FFEF4F1A5F0A22E0220E80
:10066000311C3C813E13CFCFAECF20E030E080E0A4
:1006700090E085CF2F923F924F925F926F927F9240
:100680008F929F92AF92BF92CF92DF92EF92FF92A2
:100690000F931F93CF93DF9300D000D0CDB7DEB779
:1006A000B62EA72E942E852E2DB73EB73C832B83D6
:1006B000EDB7FEB7E81BF90B0FB6F894FEBF0FBEFF
:1006C000EDBF2DB73EB72F5F3F4F79012091A001BD
:1006D00030E0821793070CF4ADC080911A010E949C
:1006E00045058091A001882309F4B1C08701C12C80
:1006F000D12C0E941B06F80181938F01FFEFCF1AC6
:10070000DF0A8091A00190E09C01C816D9068CF305
:100710009A8389831F921F928F929F92FF92EF92EA
:100720003F932F93AF92BF92CE0101969F938F93E9
:100730001F9282E08F930E94980088E390E00E94CD
:10074000D40B2DB73EB7225F3F4F0FB6F8943EBF94
:100750000FBE2DBF8C3169F160E088E390E00E940C
:10076000EC0B80E98093A1018B819C810FB6F894FA
:100770009EBF0FBE8DBF8B819C810FB6F8949EBF2C
:100780000FBE8DBF0F900F900F900F90DF91CF9104
:100790001F910F91FF90EF90DF90CF90BF90AF909F
:1007A0009F908F907F906F905F904F903F902F9091
:1007B00008958AE390E00E94D40B282E882361F2EA
:1007C0008BE3682E80E0782E9EE3492E90E0592E30
:1007D00004E410E0312CC3010E94D40B882EC20126
:1007E0000E94DC0B7C018820D9F08A94912C9FEF29
:1007F000891A990A800E911E5801EFEFAE1ABE0AAF
:10080000C8010E94D40B6701FFEFCF1ADF0A682FDF
:10081000C7010E94EC0B850176018A149B0461F7E5
:1008200033942FEF621A720A32E0430E511C2310E8
:10083000D2CF92CF9CE69093A1018093A2018B81AD
:100840009C810FB6F8949EBF0FBE8DBF94CF20E061
:1008500030E080E090E05CCFEF92FF920F931F9327
:10086000CF93DF93CDB7DEB7A0970FB6F894DEBF76
:100870000FBECDBF7B010E94D40B182F8091A00129
:10088000181791F08CE68093A1011093A201A09615
:100890000FB6F894DEBF0FBECDBFDF91CF911F9191
:1008A0000F91FF90EF90089580911A010E944505E5
:1008B000412F50E0B701CE0101960E94C40B8091F8
:1008C000A001882391F0CE0101967C0100E010E0A8
:1008D000F70181917F010E9445050F5F1F4F8091B5
:1008E000A00190E0081719079CF380E98093A1010B
:1008F000CECF4F925F926F927F928F929F92AF92E4
:10090000BF92CF92DF92EF92FF920F931F93CF93FC
:10091000DF9320911801222329F1EB01092F182FD1
:100920000E94D40B482F50E0598348832091A001A6
:1009300030E042175307E1F09CE69093A1018093C9
:10094000A201DF91CF911F910F91FF90EF90DF9067
:10095000CF90BF90AF909F908F907F906F905F905F
:100960004F9008958AE68093A1011092A201E9CFE9
:100970001F921F920F931F931F921F921F928F938C
:10098000DF93CF931F921F921F9281E08F930E945B
:10099000980088E390E00E94D40B2DB73EB7225F09
:1009A0003F4F0FB6F8943EBF0FBE2DBF8C3149F0BC
:1009B00060E088E390E00E94EC0B80E98093A10165
:1009C000C0CF8AE390E00E94D40B482E882381F3A5
:1009D0008BE3A82E80E0B82E9EE3692E90E0792E5E
:1009E000C4E4D0E0512CC5010E94D40BC82EC30131
:1009F0000E94DC0B4C01CC20D1F0CA94D12C3FEFEB
:100A0000C31AD30ACC0EDD1E7E018FEFE81AF80A56
:100A1000CE010E94D40B84010F5F1F4F682FC401C9
:100A20000E94EC0BE7014801EC14FD0469F75394B4
:100A30002FEFA21AB20A32E0630E711C4510D3CF19
:100A4000B7CFCF93DF9300D0CDB7DEB78A838A814B
:100A500081708295807F898382EB90E0FC018081A8
:100A60008E32D0F385E290E02981FC01208382EB75
:100A700090E0FC01108282EB90E0FC01108200000B
:100A80000F900F90DF91CF910895CF93DF9300D017
:100A900000D0CDB7DEB78C838C818B8381EB90E067
:100AA00022E0FC01208382EB90E028E2FC0120831D
:100AB00085E290E025E230E0F90120812061FC012F
:100AC000208384E290E024E230E0F901208120617B
:100AD000FC01208380E00E9421051A8219820DC04A
:100AE0008C810E9421059A818C8189278A838C813F
:100AF00086958C8389818F5F89838981883080F393
:100B00008A810E94210581E00E94210582EB90E00C
:100B1000FC0180818E32D0F384E290E024E230E068
:100B2000F90120812F7EFC01208385E290E025E2FF
:100B300030E0F90120812F7EFC01208382EB90E0E0
:100B4000FC0180818D35D0F383E290E0FC0180814F
:100B5000882F90E080719927892B91F483E290E0AF
:100B6000FC018081882F90E080719927892BB1F357
:100B700082EB90E026E1FC0120838B818C8398CF6F
:100B800081EB90E0FC01108200000F900F900F901D
:100B90000F90DF91CF910895CF93DF931F92CDB740
:100BA000DEB782EB90E0FC0180818E32D0F382EBE5
:100BB00090E0FC01108282EB90E0FC01108282EB5D
:100BC00090E0FC0180818C30D0F383E290E0FC0166
:100BD00080818071898382EB90E0FC018081873184
:100BE000D0F383E290E0FC018081882F90E0807157
:100BF0009927982F8981890F898382EB90E0FC01E6
:100C000080818232D0F383E290E0FC018081882FE2
:100C100090E080719927982F8981890F8983898134
:100C2000882F90E0880F991F880F991F80780F9068
:100C3000DF91CF910895CF93DF9300D000D0CDB74F
:100C4000DEB781EB90E022E0FC01208384E290E0BB
:100C500024E230E0F90120812F7EFC01208385E22F
:100C600090E025E230E0F90120812061FC01208341
:100C70001A8283E290E0FC018081882F90E08071ED
:100C80009927892BB1F783E290E0FC018081882FBE
:100C900090E080719927892BB1F782EB90E0FC01FD
:100CA000108282EB90E0FC0110821B82198210C03E
:100CB0000E94CC058C838A81982F96958C81890F10
:100CC0008A839B818C8189278B8389818F5F89832C
:100CD0008981883068F30E94CC05982F8B81892701
:100CE0008B8382EB90E0FC0180818D35D0F38B818A
:100CF0008823C9F085E290E025E230E0F901208107
:100D00002F7EFC01208384E290E024E230E0F901B0
:100D100020812061FC01208382EB90E0FC01808136
:100D2000823AD0F393CF82EB90E0FC0180818B3844
:100D3000D0F381EB90E0FC0110828A810F900F903C
:100D40000F900F90DF91CF910895CF93DF93CDB7A0
:100D5000DEB7A8970FB6F894DEBF0FBECDBF80E810
:100D600080BF8FEF85B984B987B91AB888B98BB9B4
:100D700080E68093B60087E88093640066E071E0C7
:100D80008BE00E945D0010921E0110921D011092D6
:100D9000A2019E012F5D3F4F3CA32BA3ECE62E2E1C
:100DA0001AC080911A01882309F4ACC1813009F07E
:100DB00040C082E390E00E94D40B181709F4CFC121
:100DC0002092A1018093A2018CE60E9445058091AA
:100DD000A2010E9445050E941B0680931C010E94EF
:100DE0001B0680931A010E941B0680931F010E941C
:100DF0001B0680931B010E941B06182F8093A001E5
:100E00001092A20180911C01803861F0813849F272
:100E10008EE60E9445058091A2010E9445058091C1
:100E2000A101D3CFE0911A018E2F90E08A30910575
:100E300050F08DE60E9445058091A2010E94450573
:100E40008091A101C2CFFC01EC5CFF4F0C94BE0B62
:100E5000809119018111B3C18AE68093A101B5CFB8
:100E60002DB73EB738A72FA3412F50E04930510589
:100E70000CF09DC188E00E9445058091A001882367
:100E800009F4BCC2CE0101967C0100E010E00E9492
:100E90001B06F70181937F010F5F1F4F8091A00117
:100EA00090E09C010817190794F39AA389A31F9255
:100EB0001F9288E090E09F938F9381E090E08C0FE9
:100EC0009D1F9F938F933F932F93E4E3F0E0FF9355
:100ED000EF933CA13F934BA14F931F9282E08F93DE
:100EE0000E94980088E390E00E94D40BEDB7FEB713
:100EF0003E960FB6F894FEBF0FBEEDBF8C3109F4DD
:100F0000F9C160E088E390E00E94EC0BF0E9F09317
:100F1000A1012FA138A50FB6F8943EBF0FBE2DBF7B
:100F20008091A10152CF84E390E00E94D40B18136A
:100F300047CF87E00E944505412F50E068E070E010
:100F4000CE0101960E94C40B8091A001882399F0E4
:100F50009E012F5F3F4F790100E010E0F701819182
:100F60007F010E9445050F5F1F4F8091A00190E017
:100F7000081719079CF3F0E9F093A10180E925CF48
:100F800080911901882309F467CF6DB67EB68091F0
:100F90001801882309F4ABC0412F50E045305105BA
:100FA0000CF431C22092A10134E03093A201A2C01E
:100FB000EDB6FEB6412F50E0463051050CF45CC151
:100FC0002092A10185E08093A2010FB6F894FEBEA5
:100FD0000FBEEDBE8091A101F8CE86E390E00E94A5
:100FE000D40B1813EDCE84E00E944505412F50E04C
:100FF00060E170E0CE0101960E94C40B8091A001D7
:10100000882391F0CE0101967C0100E010E0F70109
:1010100081917F010E9445050F5F1F4F8091A001C4
:1010200090E0081719079CF330E93093A10180E99B
:10103000CCCE143009F4AAC12092A10134E030933F
:10104000A2018CE6C2CE80911901882309F404CF55
:1010500080911801882309F4FFCE80E190E00E947E
:10106000D40B282F30E03093370020933600412FE7
:1010700050E02417350709F0A3CE1F921F9220E1FC
:1010800030E03F932F931F921F921F928F9386E31E
:1010900090E09F938F931F921F921F9281E08F93F6
:1010A0000E94980088E390E00E94D40B2DB73EB7D1
:1010B000225F3F4F0FB6F8943EBF0FBE2DBF8C315D
:1010C00009F4BFC260E088E390E00E94EC0B30E9D5
:1010D0003093A10180E979CE80911901882309F428
:1010E000BBCE6DB67EB68091180181116EC18AE6C5
:1010F0008093A1010FB6F8947EBE0FBE6DBE8091A5
:10110000A10163CE80E390E00E94D40B181358CE67
:1011100080E00E944505412F50E060E070E0CE0184
:1011200001960E94C40B8091A001882309F47CCF12
:10113000CE0101967C0100E010E0F70181917F0172
:101140000E9445050F5F1F4F8091A00190E0081796
:1011500019079CF330E93093A10180E936CE81E094
:101160000E944505412F50E064E070E0CE010196F9
:101170000E94C40B8091A001882309F4FCCE9E013B
:101180002F5F3F4F790100E010E0F70181917F016F
:101190000E9445050F5F1F4F8091A00190E0081746
:1011A00019079CF3F0E9F093A10180E90ECE20929B
:1011B000A10188E08093A2018091A10106CE6DB6C5
:1011C0007EB680911801882309F491CF412F50E019
:1011D000453051050CF0E6CE89E00E94450580912E
:1011E000A001882309F4BBC2CE0101967C0100E076
:1011F00010E00E941B06F70181937F010F5F1F4FD4
:101200008091A00190E09C010817190794F39AA31C
:1012100089A31F921F9280E090E09F938F9381E0BB
:1012200090E08C0F9D1F9F938F933F932F93E0E34C
:10123000F0E0FF93EF933CA13F934BA14F931F929C
:1012400082E08F930E94980088E390E00E94D40B84
:10125000EDB7FEB73E960FB6F894FEBF0FBEEDBFDA
:101260008C3109F431C260E088E390E00E94EC0B1D
:10127000F0E9F093A1013ECF81E00E944505809105
:10128000A001882399F09E012F5F3F4F690100E084
:1012900010E00E941B06F60181936F010F5F1F4F44
:1012A0008091A00190E0081719079CF3898181368D
:1012B00009F063C08A81843609F05FC08B818D3666
:1012C00009F05BC08C81893609F057C08D818E365C
:1012D00009F053C081E08093190180931801F0E96F
:1012E000F093A1010FB6F894FEBE0FBEEDBE809143
:1012F000A1016BCD8AE390E00E94D40B8DA38823DB
:1013000009F4FFCD4BE3642E40E0742E5EE3452EDE
:1013100050E0552E04E410E0312CC3010E94D40BA0
:10132000882EC2010E94DC0B7C018820D9F08A94AF
:10133000912C3FEF831A930A800E911E58014FEFB4
:10134000A41AB40AC8010E94D40B67019FEFC91AFE
:10135000D90A682FC7010E94EC0B85017601A814F9
:10136000B90461F73394EFEF6E1A7E0AF2E04F0E84
:10137000511C2DA12311D1CFC4CD8AE68093A101A8
:101380001092190181E0809318011FCE80E00E9425
:1013900045058091A001882399F072E1E72E71E064
:1013A000F72E00E010E0F70181917F010E944505D2
:1013B0000F5F1F4F8091A00190E0081719079CF361
:1013C00040E94093A10180E900CD2DB73EB72052FE
:1013D00031090FB6F8943EBF0FBE2DBF8DB79EB733
:1013E00001967C01412F50E0413251050CF49CC024
:1013F0002092A10180E28093A2017CCE20E030E027
:1014000080E090E052CD86E00E9445058091A001E9
:10141000882309F4AEC1CE0101967C0100E010E002
:101420000E941B06F70181937F010F5F1F4F809180
:10143000A00190E09C010817190794F39AA389A3CF
:101440001F921F9284E090E09F938F9381E090E041
:101450008C0F9D1F9F938F933F932F93E2E3F0E0B8
:10146000FF93EF933CA13F934BA14F931F9282E0D8
:101470008F930E94980088E390E00E94D40BEDB710
:10148000FEB73E960FB6F894FEBF0FBEEDBF8C318F
:1014900009F0E9CE8AE390E00E94D40B882309F496
:1014A000E2CE9BE3492E90E0592E2EE330E03EA39E
:1014B0002DA304E410E0312C78A66FA2782EC2018F
:1014C0000E94D40B882E8DA19EA10E94DC0B7C0172
:1014D0008820D9F08A94912C3FEF831A930A800ECA
:1014E000911E58014FEFA41AB40AC8010E94D40BF0
:1014F00067019FEFC91AD90A682FC7010E94EC0B38
:10150000850176018A149B0461F73394EFEF4E1A3C
:101510005E0A2DA13EA12E5F3F4F3EA32DA3731067
:10152000CECF6FA078A49FCE83E00E944505809126
:10153000A001882309F418C1670100E010E00E94AF
:101540001B06F60181936F010F5F1F4F8091A00171
:1015500090E09C010817190794F39A8389831F92DE
:101560001F9280E190E09F938F93FF92EF923F93C1
:101570002F9326E330E03F932F9381E090E08C0F90
:101580009D1F9F938F931F9292E09F930E949800BC
:1015900088E390E00E94D40BEDB7FEB73E960FB6FD
:1015A000F894FEBF0FBEEDBF8C3109F05CCE8AE32C
:1015B00090E00E94D40B882309F455CE6BE3462EAD
:1015C00060E0562E2EE330E03EA32DA304E410E0AD
:1015D000312C78A66FA2782EC2010E94D40B882EDF
:1015E0008DA19EA10E94DC0B7C018820D9F08A94F9
:1015F000912C3FEF831A930A800E911E58014FEFF2
:10160000A41AB40AC8010E94D40B67019FEFC91A3B
:10161000D90A682FC7010E94EC0B85017601A81436
:10162000B90461F73394EFEF4E1A5E0A2DA13EA183
:101630002E5F3F4F3EA32DA37310CECF6FA078A493
:1016400012CE8AE390E00E94D40B8DA3882309F484
:1016500039CD2BE3622E20E0722E3EE3432E30E0A4
:10166000532E04E410E0312CC3010E94D40B882EC9
:10167000C2010E94DC0B7C018820D9F08A94912C55
:101680004FEF841A940A800E911E58018FEFA81A0A
:10169000B80AC8010E94D40B67019FEFC91AD90A82
:1016A000682FC7010E94EC0B85017601A814B904CC
:1016B00061F73394EFEF6E1A7E0AF2E04F0E511C81
:1016C0002DA12311D1CFFECC8AE390E00E94D40B50
:1016D000F82E882309F4C7CD8BE3482E80E0582EDE
:1016E0002EE330E03EA32DA304E410E0312C78A6D5
:1016F0006FA27F2CC2010E94D40B882E8DA19EA1C7
:101700000E94DC0B7C018820D9F08A94912C3FEF59
:10171000831A930A800E911E58014FEFA41AB40A3F
:10172000C8010E94D40B67019FEFC91AD90A682F1C
:10173000C7010E94EC0B850176018A149B0461F7B6
:101740003394EFEF4E1A5E0A2DA13EA12E5F3F4F5C
:101750003EA32DA37310CECF6FA078A484CD20E03C
:1017600030E080E090E053CD20E030E080E090E099
:10177000F4CE20E030E080E090E060CEEE0FFF1F7E
:101780000590F491E02D0994DC01CB01FC01F9995D
:10179000FECF06C0F2BDE1BDF89A319600B40D92BD
:1017A00041505040B8F70895F999FECF92BD81BDE0
:1017B000F89A992780B50895A8E1B0E042E050E09A
:1017C0000C94C60BDC01CB0103C02D910E94ED0BE4
:1017D00041505040D0F70895262FF999FECF1FBAF7
:1017E00092BD81BD20BD0FB6F894FA9AF99A0FBE4A
:1017F000019608950E94EC0B272F0C94ED0BF894A2
:02180000FFCF18
:1018020061646D696E0048656C6C6F207363617210
:081812006400312E30300000AB
:00000001FF
