:100000000C943E000C945B000C945B000C945B0021
:100010000C945B000C945B000C945B000C945B00F4
:100020000C945B000C945B000C945B000C945B00E4
:100030000C945B000C945B000C945B000C945B00D4
:100040000C945B000C945B000C945B000C945B00C4
:100050000C945B000C945B000C945B000C945B00B4
:100060000C945B000C945B00E60602050205330667
:100070008507CF06F10607067405110511241FBE7A
:10008000CFEFD8E0DEBFCDBF11E0A0E0B1E0E4EFFC
:10009000F1E102C005900D92A231B107D9F721E03C
:1000A000A2E1B1E001C01D92AB39B207E1F70E94B5
:1000B0008F040C94F8080C940000FF920F931F9388
:1000C000CF93DF93082FF62E172F8BE30E942F0379
:1000D000C1EFC00F8C2F0E942F0381E00E942F03DD
:1000E00085E00E942F0385E00E942F0380E00E949C
:1000F0002F0380E00E942F030051CC2369F0CF2D05
:10010000D12F10E00F5F1F4F0C0F1D1F89910E9410
:100110002F03C017D107D1F7DF91CF911F910F9116
:10012000FF9008950E942F0380919A010C942F0351
:100130008F929F92BF92CF92DF92EF92FF920F9396
:100140001F93CF93DF93CDB7DEB78E01025F1F4FB2
:10015000F801E190F1908F0160E088E390E00E9467
:10016000E508E114F10409F442C034E4832E30E0E0
:10017000932EB12CA701B401F801808191810E94D6
:10018000DB088E0C9F1CCB2CD12CF8016281738173
:10019000F3E0CF0ED11CC601880F991F885C9F4FDA
:1001A0000E94F3086E2DC601885C9F4F0E94E508EF
:1001B000B394F801E480F5800A5F1F4FE114F10465
:1001C000C9F66B2D8AE390E00E94E5086CE188E3B4
:1001D00090E00E94E508DF91CF911F910F91FF9071
:1001E000EF90DF90CF90BF909F908F900895B12CAB
:1001F000E8CF4F925F926F927F928F929F92AF92D1
:10020000BF92CF92DF92EF92FF920F931F93CF9303
:10021000DF9388E390E00E94CD088C31A9F060E084
:1002200088E390E0DF91CF911F910F91FF90EF90C5
:10023000DF90CF90BF90AF909F908F907F906F9006
:100240005F904F900C94E5088AE390E00E94CD08FF
:10025000482E882321F38BE3A82E80E0B82E9EE35E
:10026000692E90E0792E512CC4E4D0E0C5010E94A3
:10027000CD08C82EC3010E94D5084C01CC20D1F076
:10028000CA94D12C8FEFC81AD80ACC0EDD1E7E017D
:100290008FEFE81AF80ACE010E94CD0884010F5FA3
:1002A0001F4F682FC4010E94E508E7014801CE14E2
:1002B000DF0469F753948FEFA81AB80A82E0680E3A
:1002C000711C4510D3CFABCF0F931F93CF93DF9308
:1002D0002091980130E02817390751F09CE690935F
:1002E000990180939A01DF91CF911F910F91089509
:1002F000C72FD62F809112010E942F038091980161
:10030000882381F00D2F1C2FC0E0D0E0F8018191EF
:100310008F010E942F0321968091980190E0C817C9
:10032000D907A4F380E980939901DF91CF911F91C0
:100330000F9108952F923F924F925F926F927F920A
:100340008F929F92AF92BF92CF92DF92EF92FF92E5
:100350000F931F93CF93DF9300D000D0CDB7DEB7BC
:10036000B62EA72E942E852E2DB73EB73C832B8319
:10037000EDB7FEB7E81BF90B0FB6F894FEBF0FBE42
:10038000EDBF2DB73EB72F5F3F4F79012091980108
:1003900030E0821793070CF4ADC0809112010E94E7
:1003A0002F0380919801882309F4B1C08701C12CE3
:1003B000D12C0E940504F80181938F01FFEFCF1A21
:1003C000DF0A8091980190E09C01C816D9068CF351
:1003D0009A8389831F921F928F929F92FF92EF922E
:1003E0003F932F93AF92BF92CE0101969F938F932D
:1003F0001F9282E08F930E94980088E390E00E9411
:10040000CD082DB73EB7225F3F4F0FB6F8943EBFE1
:100410000FBE2DBF8C3169F160E088E390E00E944F
:10042000E50880E9809399018B819C810FB6F8944F
:100430009EBF0FBE8DBF8B819C810FB6F8949EBF6F
:100440000FBE8DBF0F900F900F900F90DF91CF9147
:100450001F910F91FF90EF90DF90CF90BF90AF90E2
:100460009F908F907F906F905F904F903F902F90D4
:1004700008958AE390E00E94CD08282E882361F237
:100480008BE3682E80E0782E9EE3492E90E0592E73
:1004900004E410E0312CC3010E94CD08882EC20173
:1004A0000E94D5087C018820D9F08A94912C9FEF76
:1004B000891A990A800E911E5801EFEFAE1ABE0AF2
:1004C000C8010E94CD086701FFEFCF1ADF0A682F2D
:1004D000C7010E94E508850176018A149B0461F733
:1004E00033942FEF621A720A32E0430E511C23102C
:1004F000D2CF92CF9CE69093990180939A018B8101
:100500009C810FB6F8949EBF0FBE8DBF94CF20E0A4
:1005100030E080E090E05CCFEF92FF920F931F936A
:10052000CF93DF93CDB7DEB7A0970FB6F894DEBFB9
:100530000FBECDBF7B010E94CD08182F809198017E
:10054000181791F08CE68093990110939A01A09668
:100550000FB6F894DEBF0FBECDBFDF91CF911F91D4
:100560000F91FF90EF900895809112010E942F0348
:10057000412F50E0B701CE0101960E94BD08809145
:100580009801882391F0CE0101967C0100E010E0F3
:10059000F70181917F010E942F030F5F1F4F809110
:1005A000980190E0081719079CF380E9809399015E
:1005B000CECF0F931F93CF93DF93EC018B010E945B
:1005C000CD08482F50E0F8015183408320919801D5
:1005D00030E04217530751F09CE6909399018093C5
:1005E0009A01DF91CF911F910F91089560E070E023
:1005F000C8010E94F3084091980150E0BE0180E0DC
:1006000090E00E94DB0880E980939901DF91CF910F
:100610001F910F910895CF93DF9300D0CDB7DEB730
:100620008A838A8181708295807F898382EB90E0C2
:10063000FC0180818E32D0F385E290E02981FC01BB
:10064000208382EB90E0FC01108282EB90E0FC01C1
:10065000108200000F900F90DF91CF910895CF93FB
:10066000DF9300D000D0CDB7DEB78C838C818B8335
:1006700081EB90E022E0FC01208382EB90E028E215
:10068000FC01208385E290E025E230E0F901208141
:100690002061FC01208384E290E024E230E0F90153
:1006A00020812061FC01208380E00E940B031A82DC
:1006B00019820DC08C810E940B039A818C8189273D
:1006C0008A838C8186958C8389818F5F89838981D8
:1006D000883080F38A810E940B0381E00E940B0323
:1006E00082EB90E0FC0180818E32D0F384E290E0D6
:1006F00024E230E0F90120812F7EFC01208385E295
:1007000090E025E230E0F90120812F7EFC0120837A
:1007100082EB90E0FC0180818D35D0F383E290E0A4
:10072000FC018081882F90E080719927892B91F4BA
:1007300083E290E0FC018081882F90E0807199270E
:10074000892BB1F382EB90E026E1FC0120838B81C1
:100750008C8398CF81EB90E0FC01108200000F9019
:100760000F900F900F90DF91CF910895CF93DF936B
:100770001F92CDB7DEB782EB90E0FC0180818E3214
:10078000D0F382EB90E0FC01108282EB90E0FC0160
:10079000108282EB90E0FC0180818C30D0F383E208
:1007A00090E0FC0180818071898382EB90E0FC0104
:1007B00080818731D0F383E290E0FC018081882F33
:1007C00090E080719927982F8981890F898382EB26
:1007D00090E0FC0180818232D0F383E290E0FC0162
:1007E0008081882F90E080719927982F8981890FC7
:1007F00089838981882F90E0880F991F880F991F1E
:1008000080780F90DF91CF910895CF93DF9300D040
:1008100000D0CDB7DEB781EB90E022E0FC01208371
:1008200084E290E024E230E0F90120812F7EFC0197
:10083000208385E290E025E230E0F901208120610B
:10084000FC0120831A8283E290E0FC018081882FE2
:1008500090E080719927892BB1F783E290E0FC0149
:100860008081882F90E080719927892BB1F782EBE6
:1008700090E0FC01108282EB90E0FC0110821B8270
:10088000198210C00E94B6038C838A81982F969596
:100890008C81890F8A839B818C8189278B838981B5
:1008A0008F5F89838981883068F30E94B603982F0F
:1008B0008B8189278B8382EB90E0FC0180818D35D1
:1008C000D0F38B818823C9F085E290E025E230E007
:1008D000F90120812F7EFC01208384E290E024E254
:1008E00030E0F90120812061FC01208382EB90E05F
:1008F000FC018081823AD0F393CF82EB90E0FC013F
:1009000080818B38D0F381EB90E0FC0110828A81EA
:100910000F900F900F900F90DF91CF910895CF938C
:10092000DF93CDB7DEB7A6970FB6F894DEBF0FBE44
:10093000CDBF80E880BF8FEF85B984B987B91AB879
:1009400088B98BB980E68093B60087E8809364000D
:1009500060E071E08BE00E945D0010921601109241
:10096000150110929A019E012F5D3F4F3CA32BA3CE
:100970001BC080911201882309F4F3C2813009F071
:1009800041C082E390E00E94CD08181709F415C316
:10099000FCE6F093990180939A018CE60E942F0364
:1009A00080919A010E942F030E94050480931401F4
:1009B0000E940504809312010E9405048093170190
:1009C0000E940504809313010E940504182F809350
:1009D000980110929A0180911401803861F0813859
:1009E00041F28EE60E942F0380919A010E942F030C
:1009F00080919901D3CFE09112018E2F90E08A303F
:100A0000910550F08DE60E942F0380919A010E947B
:100A10002F0380919901C2CFFC01EC5CFF4F0C9435
:100A2000B7082DB73EB73EA32DA3412F50E0453068
:100A300051050CF00BC389E00E942F0380919801AF
:100A4000882309F48FC3CE0101967C0100E010E0F9
:100A50000E940504F70181937F010F5F1F4F809172
:100A6000980190E09C010817190794F39AA389A3B1
:100A70001F921F9280E090E09F938F9381E090E01F
:100A80008C0F9D1F9F938F933F932F93E0E3F0E094
:100A9000FF93EF933CA13F934BA14F931F9282E0B2
:100AA0008F930E94980088E390E00E94CD08EDB7F4
:100AB000FEB73E960FB6F894FEBF0FBEEDBF8C3169
:100AC00009F4CDC260E088E390E00E94E508F0E917
:100AD000F09399012DA13EA10FB6F8943EBF0FBE31
:100AE0002DBF809199015ACF2DB73EB73EA32DA3BC
:100AF000412F50E0493051050CF09FC288E00E9420
:100B00002F0380919801882309F427C3CE01019611
:100B10007C0100E010E00E940504F70181937F0151
:100B20000F5F1F4F8091980190E09C0108171907F3
:100B300094F39AA389A31F921F9288E090E09F9359
:100B40008F9381E090E08C0F9D1F9F938F933F9335
:100B50002F93E4E3F0E0FF93EF933CA13F934BA18D
:100B60004F931F9282E08F930E94980088E390E059
:100B70000E94CD08EDB7FEB73E960FB6F894FEBFC3
:100B80000FBEEDBF8C3109F09DCF8AE390E00E944B
:100B9000CD08282E882309F495CF4BE3642E40E03E
:100BA000742E5EE3452E50E0552E04E410E0312C07
:100BB000C3010E94CD08882EC2010E94D5087C0185
:100BC0008820D9F08A94912C3FEF831A930A800EE3
:100BD000911E58014FEFA41AB40AC8010E94CD0813
:100BE00067019FEFC91AD90A682FC7010E94E5085B
:100BF00085017601A814B90461F73394EFEF6E1AFA
:100C00007E0AF2E04F0E511C2310D2CF5BCF84E35B
:100C100090E00E94CD081813BBCE87E00E942F03FE
:100C2000412F50E068E070E0CE0101960E94BD08BF
:100C300080919801882391F0CE0101967C0100E01B
:100C400010E0F70181917F010E942F030F5F1F4F7A
:100C50008091980190E0081719079CF320E92093F0
:100C6000990180E99BCE2DB73EB73EA32DA38DB74A
:100C70009EB780970FB6F8949EBF0FBE8DBFEDB79D
:100C8000FEB731967F01412F50E0413251050CF003
:100C9000C4C183E00E942F0380919801882309F446
:100CA00052C28701C12CD12C0E940504F801819306
:100CB0008F01FFEFCF1ADF0A8091980190E09C012D
:100CC000C816D9068CF39A8389831F921F9280E1FC
:100CD00090E09F938F93FF92EF923F932F9386E341
:100CE00090E09F938F9321E030E02C0F3D1F3F93C6
:100CF0002F931F9232E03F930E94980088E390E088
:100D00000E94CD08EDB7FEB73E960FB6F894FEBF31
:100D10000FBEEDBF8C3109F0D5CE8AE390E00E9482
:100D2000CD08282E882309F4CDCE6BE3662E60E033
:100D3000762E7EE3472E70E0572E04E410E0312C2F
:100D4000C3010E94CD08882EC2010E94D5087C01F3
:100D50008820D9F08A94912C3FEF831A930A800E51
:100D6000911E58014FEFA41AB40AC8010E94CD0881
:100D700067019FEFC91AD90A682FC7010E94E508C9
:100D800085017601A814B90461F73394EFEF6E1A68
:100D90007E0AF2E04F0E511C2310D2CF93CE80E199
:100DA00090E00E94CD08282F30E030933700209348
:100DB0003600412F50E02417350709F492C12CE684
:100DC0002093990180939A018CE6E8CD143009F4C0
:100DD0009CC13CE63093990144E040939A018CE633
:100DE000DDCD8DB79EB79EA38DA3412F50E045303A
:100DF00051050CF009C186E00E942F0380919801F3
:100E0000882309F4A5C19E012F5F3F4F790100E0BF
:100E100010E00E940504F70181937F010F5F1F4FCF
:100E20008091980190E09C010817190794F39AA308
:100E300089A31F921F9284E090E09F938F9381E09B
:100E400090E08C0F9D1F9F938F933F932F93E2E32E
:100E5000F0E0FF93EF933CA13F934BA14F931F9280
:100E600082E08F930E94980088E390E00E94CD0872
:100E7000EDB7FEB73E960FB6F894FEBF0FBEEDBFBE
:100E80008C3109F01FCE8AE390E00E94CD08282E15
:100E9000882309F417CE2BE3622E20E0722E3EE366
:100EA000432E30E0532E04E410E0312CC3010E94A5
:100EB000CD08882EC2010E94D5087C018820D9F077
:100EC0008A94912C3FEF831A930A800E911E580149
:100ED0004FEFA41AB40AC8010E94CD0867019FEF22
:100EE000C91AD90A682FC7010E94E5088501760151
:100EF000A814B90461F73394EFEF6E1A7E0AF2E09A
:100F00004F0E511C2310D2CFDDCD86E390E00E941E
:100F1000CD08181354CF84E00E942F03412F50E0D6
:100F200060E170E0CE0101960E94BD0880919801B9
:100F3000882391F0CE0101967C0100E010E0F701DA
:100F400081917F010E942F030F5F1F4F80919801B5
:100F500090E0081719079CF330E93093990180E974
:100F60001DCD80E390E00E94CD08181328CF80E0CB
:100F70000E942F03412F50E060E070E0CE01019607
:100F80000E94BD0880919801882331F3CE0101961B
:100F90007C0100E010E0F70181917F010E942F03A6
:100FA0000F5F1F4F8091980190E0081719079CF37D
:100FB00030E93093990180E9F1CC81E00E942F0360
:100FC000412F50E064E070E0CE0101960E94BD0820
:100FD00080919801882309F441CECE0101967C01CD
:100FE00000E010E0F70181917F010E942F030F5F65
:100FF0001F4F8091980190E0081719079CF320E992
:101000002093990180E9CACC9CE690939901E4E091
:10101000E0939A0180919901C1CCFCE6F09399018B
:1010200020E220939A018DA19EA10FB6F8949EBF55
:101030000FBE8DBF80919901B1CC3CE630939901F0
:1010400088E080939A0180919901A8CC3CE6309386
:10105000990144E040939A01809199019FCC8AE3E1
:1010600090E00E94CD08282E882309F42BCD8BE335
:10107000682E80E0782E9EE3492E90E0592E04E4FD
:1010800010E0312CC3010E94CD08882EC2010E94BD
:10109000D5087C018820D9F08A94912C3FEF831ADF
:1010A000930A800E911E58014FEFA41AB40AC8018A
:1010B0000E94CD0867019FEFC91AD90A682FC7019E
:1010C0000E94E508850176018A149B0461F7339438
:1010D000EFEF6E1A7E0AF2E04F0E511C2310D2CFB2
:1010E000F1CC60E070E086E390E00E94F30840916C
:1010F000980150E060E170E080E090E00E94DB0841
:1011000030E93093990180E949CC80E00E942F03B7
:1011100080919801882399F0ECE0EE2EE1E0FE2E1C
:1011200000E010E0F70181917F010E942F030F5F23
:101130001F4F8091980190E0081719079CF380E9F0
:10114000809399012BCC20E030E080E090E0BBCD93
:1011500020E030E080E090E06ACE20E030E080E007
:1011600090E0E7CC20E030E080E090E07FCCEE0F34
:10117000FF1F0590F491E02D0994DC01CB01FC01E7
:10118000F999FECF06C0F2BDE1BDF89A319600B4E0
:101190000D9241505040B8F70895F999FECF92BD95
:1011A00081BDF89A992780B50895A8E1B0E042E0A2
:1011B00050E00C94BF08DC01CB0103C02D910E94CC
:1011C000E60841505040D0F70895262FF999FECFF8
:1011D0001FBA92BD81BD20BD0FB6F894FA9AF99A54
:1011E0000FBE019608950E94E508272F0C94E6088B
:0411F000F894FFCFA1
:1011F40048656C6C6F20736361726400312E30300B
:021204000000E8
:00000001FF
